{
  "address": "0xDf81dd298726A8EEEF66594afAb4bB10089C35b6",
  "abi": [
    {
      "inputs": [],
      "stateMutability": "nonpayable",
      "type": "constructor"
    },
    {
      "inputs": [
        {
          "internalType": "address",
          "name": "owner",
          "type": "address"
        }
      ],
      "name": "OwnableInvalidOwner",
      "type": "error"
    },
    {
      "inputs": [
        {
          "internalType": "address",
          "name": "account",
          "type": "address"
        }
      ],
      "name": "OwnableUnauthorizedAccount",
      "type": "error"
    },
    {
      "inputs": [],
      "name": "TokenNameSymbolExists",
      "type": "error"
    },
    {
      "anonymous": false,
      "inputs": [
        {
          "indexed": true,
          "internalType": "address",
          "name": "previousOwner",
          "type": "address"
        },
        {
          "indexed": true,
          "internalType": "address",
          "name": "newOwner",
          "type": "address"
        }
      ],
      "name": "OwnershipTransferred",
      "type": "event"
    },
    {
      "anonymous": false,
      "inputs": [
        {
          "indexed": false,
          "internalType": "address",
          "name": "tokenAddress",
          "type": "address"
        },
        {
          "indexed": false,
          "internalType": "address",
          "name": "owner",
          "type": "address"
        },
        {
          "indexed": false,
          "internalType": "string",
          "name": "name",
          "type": "string"
        },
        {
          "indexed": false,
          "internalType": "string",
          "name": "symbol",
          "type": "string"
        }
      ],
      "name": "TokenCreated",
      "type": "event"
    },
    {
      "inputs": [],
      "name": "UniswapAddress",
      "outputs": [
        {
          "internalType": "address",
          "name": "",
          "type": "address"
        }
      ],
      "stateMutability": "view",
      "type": "function"
    },
    {
      "inputs": [],
      "name": "WETHaddress",
      "outputs": [
        {
          "internalType": "address",
          "name": "",
          "type": "address"
        }
      ],
      "stateMutability": "view",
      "type": "function"
    },
    {
      "inputs": [
        {
          "internalType": "string",
          "name": "name",
          "type": "string"
        },
        {
          "internalType": "string",
          "name": "symbol",
          "type": "string"
        }
      ],
      "name": "createToken",
      "outputs": [],
      "stateMutability": "nonpayable",
      "type": "function"
    },
    {
      "inputs": [],
      "name": "getTokens",
      "outputs": [
        {
          "internalType": "address[]",
          "name": "",
          "type": "address[]"
        }
      ],
      "stateMutability": "view",
      "type": "function"
    },
    {
      "inputs": [],
      "name": "owner",
      "outputs": [
        {
          "internalType": "address",
          "name": "",
          "type": "address"
        }
      ],
      "stateMutability": "view",
      "type": "function"
    },
    {
      "inputs": [],
      "name": "positionManager",
      "outputs": [
        {
          "internalType": "address",
          "name": "",
          "type": "address"
        }
      ],
      "stateMutability": "view",
      "type": "function"
    },
    {
      "inputs": [],
      "name": "renounceOwnership",
      "outputs": [],
      "stateMutability": "nonpayable",
      "type": "function"
    },
    {
      "inputs": [
        {
          "internalType": "address",
          "name": "_treasuryWallet",
          "type": "address"
        }
      ],
      "name": "setTreasuryWallet",
      "outputs": [],
      "stateMutability": "nonpayable",
      "type": "function"
    },
    {
      "inputs": [
        {
          "internalType": "string",
          "name": "",
          "type": "string"
        }
      ],
      "name": "tokenNames",
      "outputs": [
        {
          "internalType": "bool",
          "name": "",
          "type": "bool"
        }
      ],
      "stateMutability": "view",
      "type": "function"
    },
    {
      "inputs": [
        {
          "internalType": "string",
          "name": "",
          "type": "string"
        }
      ],
      "name": "tokenSymbols",
      "outputs": [
        {
          "internalType": "bool",
          "name": "",
          "type": "bool"
        }
      ],
      "stateMutability": "view",
      "type": "function"
    },
    {
      "inputs": [
        {
          "internalType": "uint256",
          "name": "",
          "type": "uint256"
        }
      ],
      "name": "tokens",
      "outputs": [
        {
          "internalType": "address",
          "name": "",
          "type": "address"
        }
      ],
      "stateMutability": "view",
      "type": "function"
    },
    {
      "inputs": [
        {
          "internalType": "address",
          "name": "newOwner",
          "type": "address"
        }
      ],
      "name": "transferOwnership",
      "outputs": [],
      "stateMutability": "nonpayable",
      "type": "function"
    },
    {
      "inputs": [],
      "name": "treasuryWallet",
      "outputs": [
        {
          "internalType": "address",
          "name": "",
          "type": "address"
        }
      ],
      "stateMutability": "view",
      "type": "function"
    }
  ],
  "transactionHash": "0x203bbd61e8c5dceeec8b32b564adf475f8af63925f3dc0e5335e01d22997ad60",
  "args": [],
  "numDeployments": 41,
  "solcInputHash": "3876b68087a7a4e90df59231d2b4831c",
  "bytecode": "0x61010060405273420000000000000000000000000000000000000660a052734752ba5dbc23f44d87826276bf6fd6b1c372ad2460c0527327f971cb582bf9e50f397e4d29a5c7a34f11faa260e052600480546001600160a01b03191673820ae05036e269becbd3b01aa7e30bbc9f75026d17905534801561007f57600080fd5b503060805233806100aa57604051631e4fbdf760e01b81526000600482015260240160405180910390fd5b6100b3816100b9565b50610109565b600080546001600160a01b038381166001600160a01b0319831681178455604051919092169283917f8be0079c531659141344cd1fd0a4f28419497f9722a3daafe3b4186f6b6457e09190a35050565b60805160a05160c05160e051612b2f610157600039600081816101c0015261035701526000818161018e01526103360152600081816101fa0152610315015260006105f10152612b2f6000f3fe60806040523480156200001157600080fd5b5060043610620000e05760003560e01c8063791b98bc1162000097578063a8602fea116200006e578063a8602fea146200021c578063aa6ca8081462000233578063f2fde38b146200024c578063f6f607df146200026357600080fd5b8063791b98bc14620001ba5780638da5cb5b14620001e2578063a72aa43e14620001f457600080fd5b80630db21a0414620000e55780632f2f2d56146200012b5780634626402b14620001445780634f64b2be146200017157806369451fef1462000188578063715018a614620001b0575b600080fd5b62000116620000f636600462000754565b805160208183018101805160018252928201919093012091525460ff1681565b60405190151581526020015b60405180910390f35b620001426200013c36600462000795565b62000294565b005b60045462000158906001600160a01b031681565b6040516001600160a01b03909116815260200162000122565b620001586200018236600462000800565b620004c1565b620001587f000000000000000000000000000000000000000000000000000000000000000081565b62000142620004ec565b620001587f000000000000000000000000000000000000000000000000000000000000000081565b6000546001600160a01b031662000158565b620001587f000000000000000000000000000000000000000000000000000000000000000081565b620001426200022d3660046200081a565b62000504565b6200023d6200053a565b6040516200012291906200084c565b620001426200025d3660046200081a565b6200059e565b620001166200027436600462000754565b805160208183018101805160028252928201919093012091525460ff1681565b6200029e620005e6565b600182604051620002b09190620008c1565b9081526040519081900360200190205460ff1680620002f05750600281604051620002dc9190620008c1565b9081526040519081900360200190205460ff165b156200030f576040516336855be160e21b815260040160405180910390fd5b600082827f00000000000000000000000000000000000000000000000000000000000000007f00000000000000000000000000000000000000000000000000000000000000007f0000000000000000000000000000000000000000000000000000000000000000600460009054906101000a90046001600160a01b03166040516200039a906200069b565b620003ab969594939291906200090d565b604051809103906000f080158015620003c8573d6000803e3d6000fd5b50905060018084604051620003de9190620008c1565b908152604051908190036020018120805492151560ff199093169290921790915560019060029062000412908590620008c1565b908152604051602091819003919091018120805460ff191692151592909217909155600380546001810182556000919091527fc2575a0e9e593c00f959f8c92f12db2869c3395a3b0502d05e2516446f71f85b0180546001600160a01b0319166001600160a01b0384161790557fd5d05a8421149c74fd223cfc823befb883babf9bf0b0e4d6bf9c8fdb70e59bb490620004b49083903390879087906200096a565b60405180910390a1505050565b60038181548110620004d257600080fd5b6000918252602090912001546001600160a01b0316905081565b620004f66200061c565b6200050260006200064b565b565b6200050e620005e6565b620005186200061c565b600480546001600160a01b0319166001600160a01b0392909216919091179055565b606060038054806020026020016040519081016040528092919081815260200182805480156200059457602002820191906000526020600020905b81546001600160a01b0316815260019091019060200180831162000575575b5050505050905090565b620005a86200061c565b6001600160a01b038116620005d857604051631e4fbdf760e01b8152600060048201526024015b60405180910390fd5b620005e3816200064b565b50565b306001600160a01b037f000000000000000000000000000000000000000000000000000000000000000016146200050257600080fd5b6000546001600160a01b03163314620005025760405163118cdaa760e01b8152336004820152602401620005cf565b600080546001600160a01b038381166001600160a01b0319831681178455604051919092169283917f8be0079c531659141344cd1fd0a4f28419497f9722a3daafe3b4186f6b6457e09190a35050565b61214280620009b883390190565b634e487b7160e01b600052604160045260246000fd5b600082601f830112620006d157600080fd5b813567ffffffffffffffff80821115620006ef57620006ef620006a9565b604051601f8301601f19908116603f011681019082821181831017156200071a576200071a620006a9565b816040528381528660208588010111156200073457600080fd5b836020870160208301376000602085830101528094505050505092915050565b6000602082840312156200076757600080fd5b813567ffffffffffffffff8111156200077f57600080fd5b6200078d84828501620006bf565b949350505050565b60008060408385031215620007a957600080fd5b823567ffffffffffffffff80821115620007c257600080fd5b620007d086838701620006bf565b93506020850135915080821115620007e757600080fd5b50620007f685828601620006bf565b9150509250929050565b6000602082840312156200081357600080fd5b5035919050565b6000602082840312156200082d57600080fd5b81356001600160a01b03811681146200084557600080fd5b9392505050565b6020808252825182820181905260009190848201906040850190845b818110156200088f5783516001600160a01b03168352928401929184019160010162000868565b50909695505050505050565b60005b83811015620008b85781810151838201526020016200089e565b50506000910152565b60008251620008d58184602087016200089b565b9190910192915050565b60008151808452620008f98160208601602086016200089b565b601f01601f19169290920160200192915050565b60c0815260006200092260c0830189620008df565b8281036020840152620009368189620008df565b6001600160a01b03978816604085015295871660608401525050918416608083015290921660a09092019190915292915050565b6001600160a01b038581168252841660208201526080604082018190526000906200099890830185620008df565b8281036060840152620009ac8185620008df565b97965050505050505056fe60e06040526706f05b59d3b200006006556007805461ffff191690553480156200002857600080fd5b5060405162002142380380620021428339810160408190526200004b9162000626565b32868660036200005c838262000775565b5060046200006b828262000775565b5050506001600160a01b0381166200009e57604051631e4fbdf760e01b8152600060048201526024015b60405180910390fd5b620000a98162000119565b506001600160a01b0380841660805282811660a052841660c0819052620000d59030906127106200016b565b6007805462010000600160b01b031916620100006001600160a01b038416021790556200010d61dead670de0b6b3a7640000620003d7565b50505050505062000890565b600580546001600160a01b038381166001600160a01b0319831681179093556040519116919082907f8be0079c531659141344cd1fd0a4f28419497f9722a3daafe3b4186f6b6457e090600090a35050565b608051604051630b4c774160e11b81526001600160a01b038581166004830152848116602483015262ffffff841660448301526c0100000000000000000000000092600092911690631698ee8290606401602060405180830381865afa158015620001da573d6000803e3d6000fd5b505050506040513d601f19601f8201168201806040525081019062000200919062000841565b9050836001600160a01b0316856001600160a01b031603620002355760405163eaa6c6eb60e01b815260040160405180910390fd5b836001600160a01b0316856001600160a01b0316101562000254579293925b6001600160a01b038116620003d05760805160405163a167129560e01b81526001600160a01b038781166004830152868116602483015262ffffff861660448301529091169063a1671295906064016020604051808303816000875af1158015620002c3573d6000803e3d6000fd5b505050506040513d601f19601f82011682018060405250810190620002e9919062000841565b50608051604051630b4c774160e11b81526001600160a01b038781166004830152868116602483015262ffffff8616604483015290911690631698ee8290606401602060405180830381865afa15801562000348573d6000803e3d6000fd5b505050506040513d601f19601f820116820180604052508101906200036e919062000841565b60405163f637731d60e01b81526001600160a01b0384811660048301529192509082169063f637731d90602401600060405180830381600087803b158015620003b657600080fd5b505af1158015620003cb573d6000803e3d6000fd5b505050505b5050505050565b6001600160a01b038216620004035760405163ec442f0560e01b81526000600482015260240162000095565b620004116000838362000415565b5050565b6001600160a01b0383166200044457806002600082825462000438919062000868565b90915550620004b89050565b6001600160a01b03831660009081526020819052604090205481811015620004995760405163391434e360e21b81526001600160a01b0385166004820152602481018290526044810183905260640162000095565b6001600160a01b03841660009081526020819052604090209082900390555b6001600160a01b038216620004d657600280548290039055620004f5565b6001600160a01b03821660009081526020819052604090208054820190555b816001600160a01b0316836001600160a01b03167fddf252ad1be2c89b69c2b068fc378daa952ba7f163c4a11628f55a4df523b3ef836040516200053b91815260200190565b60405180910390a3505050565b634e487b7160e01b600052604160045260246000fd5b600082601f8301126200057057600080fd5b81516001600160401b03808211156200058d576200058d62000548565b604051601f8301601f19908116603f01168101908282118183101715620005b857620005b862000548565b81604052838152602092508683858801011115620005d557600080fd5b600091505b83821015620005f95785820183015181830184015290820190620005da565b600093810190920192909252949350505050565b6001600160a01b03811681146200062357600080fd5b50565b60008060008060008060c087890312156200064057600080fd5b86516001600160401b03808211156200065857600080fd5b620006668a838b016200055e565b975060208901519150808211156200067d57600080fd5b506200068c89828a016200055e565b95505060408701516200069f816200060d565b6060880151909450620006b2816200060d565b6080880151909350620006c5816200060d565b60a0880151909250620006d8816200060d565b809150509295509295509295565b600181811c90821680620006fb57607f821691505b6020821081036200071c57634e487b7160e01b600052602260045260246000fd5b50919050565b601f8211156200077057600081815260208120601f850160051c810160208610156200074b5750805b601f850160051c820191505b818110156200076c5782815560010162000757565b5050505b505050565b81516001600160401b0381111562000791576200079162000548565b620007a981620007a28454620006e6565b8462000722565b602080601f831160018114620007e15760008415620007c85750858301515b600019600386901b1c1916600185901b1785556200076c565b600085815260208120601f198616915b828110156200081257888601518255948401946001909101908401620007f1565b5085821015620008315787850151600019600388901b60f8161c191681555b5050505050600190811b01905550565b6000602082840312156200085457600080fd5b815162000861816200060d565b9392505050565b808201808211156200088a57634e487b7160e01b600052601160045260246000fd5b92915050565b60805160a05160c051611851620008f1600039600081816102c40152818161082c01528181610ce10152610d5f0152600081816103ff01528181610c2001528181610cb20152610e1e015260008181610358015261076901526118516000f3fe60806040526004361061019c5760003560e01c806370a08231116100ec57806395d89b411161008a578063a9059cbb11610064578063a9059cbb146104e0578063dd62ed3e14610500578063f058ebee14610546578063f2fde38b1461058157600080fd5b806395d89b4114610498578063a0712d68146104ad578063a145288f146104c057600080fd5b80637b3a5681116100c65780637b3a5681146104215780637fb11a221461043b5780638160b38d1461045a5780638da5cb5b1461047a57600080fd5b806370a08231146103a2578063715018a6146103d8578063791b98bc146103ed57600080fd5b806333527eac116101595780634626402b116101335780634626402b146103205780635b54918214610346578063696d62831461037a5780636d2e7c691461039a57600080fd5b806333527eac1461029c5780633fc8cef3146102b257806342966c68146102fe57600080fd5b806306fdde03146101a1578063095ea7b3146101cc578063150b7a02146101fc57806318160ddd1461024157806323b872dd14610260578063313ce56714610280575b600080fd5b3480156101ad57600080fd5b506101b66105a1565b6040516101c3919061133a565b60405180910390f35b3480156101d857600080fd5b506101ec6101e736600461139d565b610633565b60405190151581526020016101c3565b34801561020857600080fd5b506102286102173660046113c9565b630a85bd0160e11b95945050505050565b6040516001600160e01b031990911681526020016101c3565b34801561024d57600080fd5b506002545b6040519081526020016101c3565b34801561026c57600080fd5b506101ec61027b366004611468565b61064d565b34801561028c57600080fd5b50604051601281526020016101c3565b3480156102a857600080fd5b5061025260065481565b3480156102be57600080fd5b506102e67f000000000000000000000000000000000000000000000000000000000000000081565b6040516001600160a01b0390911681526020016101c3565b34801561030a57600080fd5b5061031e6103193660046114a9565b610671565b005b34801561032c57600080fd5b506007546102e6906201000090046001600160a01b031681565b34801561035257600080fd5b506102e67f000000000000000000000000000000000000000000000000000000000000000081565b34801561038657600080fd5b506102e66103953660046114c2565b610734565b61031e6107de565b3480156103ae57600080fd5b506102526103bd366004611515565b6001600160a01b031660009081526020819052604090205490565b3480156103e457600080fd5b5061031e6109e1565b3480156103f957600080fd5b506102e67f000000000000000000000000000000000000000000000000000000000000000081565b34801561042d57600080fd5b506007546101ec9060ff1681565b34801561044757600080fd5b506007546101ec90610100900460ff1681565b34801561046657600080fd5b50610252610475366004611539565b6109f5565b34801561048657600080fd5b506005546001600160a01b03166102e6565b3480156104a457600080fd5b506101b6610a2d565b61031e6104bb3660046114a9565b610a3c565b3480156104cc57600080fd5b506102526104db3660046114a9565b610b80565b3480156104ec57600080fd5b506101ec6104fb36600461139d565b610bca565b34801561050c57600080fd5b5061025261051b36600461155b565b6001600160a01b03918216600090815260016020908152604080832093909416825291909152205490565b610559610554366004611539565b610bd8565b604080519485526001600160801b0390931660208501529183015260608201526080016101c3565b34801561058d57600080fd5b5061031e61059c366004611515565b610ebc565b6060600380546105b090611594565b80601f01602080910402602001604051908101604052809291908181526020018280546105dc90611594565b80156106295780601f106105fe57610100808354040283529160200191610629565b820191906000526020600020905b81548152906001019060200180831161060c57829003601f168201915b5050505050905090565b600033610641818585610eff565b60019150505b92915050565b60003361065b858285610f11565b610666858585610f8f565b506001949350505050565b60075460ff161561069557604051633a0d72d160e21b815260040160405180910390fd5b60006106a082610b80565b9050478111156106c35760405163311c9fd160e01b815260040160405180910390fd5b6106cd3383610fee565b604051339082156108fc029083906000818181858888f193505050501580156106fa573d6000803e3d6000fd5b5060405182815233907f1af5163f80e79b5e554f61e1d052084d3a3fe1166e42a265798c4e2ddce8ffa29060200160405180910390a25050565b604051630b4c774160e11b81526001600160a01b038481166004830152838116602483015262ffffff831660448301526000917f000000000000000000000000000000000000000000000000000000000000000090911690631698ee8290606401602060405180830381865afa1580156107b2573d6000803e3d6000fd5b505050506040513d601f19601f820116820180604052508101906107d691906115ce565b949350505050565b600754610100900460ff161561080757604051631a27eac360e11b815260040160405180910390fd5b60075460ff1661082a57604051633a0d72d160e21b815260040160405180910390fd5b7f00000000000000000000000000000000000000000000000000000000000000006000606461085a476004611601565b610864919061162e565b6007546040519192506201000090046001600160a01b0316906108fc8315029083906000818181858888f193505050501580156108a5573d6000803e3d6000fd5b50600060646108b5476001611601565b6108bf919061162e565b90506108d36005546001600160a01b031690565b6001600160a01b03166108fc829081150290604051600060405180830381858888f1935050505015801561090b573d6000803e3d6000fd5b5060006103e861091c476005611601565b610926919061162e565b6007805461ff001916610100179055604051909150339082156108fc029083906000818181858888f19350505050158015610965573d6000803e3d6000fd5b506000846001600160a01b03164760405160006040518083038185875af1925050503d80600081146109b3576040519150601f19603f3d011682016040523d82523d6000602084013e6109b8565b606091505b50509050806109da5760405163311c9fd160e01b815260040160405180910390fd5b5050505050565b6109e9611028565b6109f36000611055565b565b600082600003610a1157610a0a8284016110a7565b9050610647565b610a1a836110a7565b610a258385016110a7565b039050610647565b6060600480546105b090611594565b60075460ff1615610a6057604051633a0d72d160e21b815260040160405180910390fd5b670de0b6b3a7640000811015610a89576040516393c93e0160e01b815260040160405180910390fd5b6000610a9d610a9760025490565b836109f5565b9050803411610abf5760405163311c9fd160e01b815260040160405180910390fd5b6007805460ff1916905560006064610ad8846005611601565b610ae2919061162e565b9050610aee3082611105565b6000610afa828561168c565b9050610b063382611105565b823410610b4557336108fc610b1b853461168c565b6040518115909202916000818181858888f19350505050158015610b43573d6000803e3d6000fd5b505b60405184815233907fb9144c96c86541f6fa89c9f2f02495cccf4b08cd6643e26d34ee00aa586558a89060200160405180910390a250505050565b600080610b8c60025490565b9050808310610bae5760405163083c136160e11b815260040160405180910390fd5b610bb98382036110a7565b610bc2826110a7565b039392505050565b600033610641818585610f8f565b60075460009081908190819060ff161515600103610c09576040516393c93e0160e01b815260040160405180910390fd5b60405163095ea7b360e01b81526001600160a01b037f000000000000000000000000000000000000000000000000000000000000000016600482015260248101879052309063095ea7b3906044016020604051808303816000875af1158015610c76573d6000803e3d6000fd5b505050506040513d601f19601f82011682018060405250810190610c9a919061169f565b5060405163095ea7b360e01b81526001600160a01b037f000000000000000000000000000000000000000000000000000000000000000081166004830152602482018790527f0000000000000000000000000000000000000000000000000000000000000000169063095ea7b3906044016020604051808303816000875af1158015610d2a573d6000803e3d6000fd5b505050506040513d601f19601f82011682018060405250810190610d4e919061169f565b5060408051610160810182523081527f00000000000000000000000000000000000000000000000000000000000000006001600160a01b03166020820152612710918101919091526000906060810160c8610dad81620d89e7196116c1565b610db791906116fb565b60020b815260200160c880610dcf620d89e719611722565b610dd991906116c1565b610de391906116fb565b60020b8152602001888152602001878152602001600081526020016000815260200161dead6001600160a01b031681526020014281525090507f00000000000000000000000000000000000000000000000000000000000000006001600160a01b03166388316456826040518263ffffffff1660e01b8152600401610e689190611744565b6080604051808303816000875af1158015610e87573d6000803e3d6000fd5b505050506040513d601f19601f82011682018060405250810190610eab9190611642565b929a91995097509095509350505050565b610ec4611028565b6001600160a01b038116610ef357604051631e4fbdf760e01b8152600060048201526024015b60405180910390fd5b610efc81611055565b50565b610f0c838383600161113b565b505050565b6001600160a01b038381166000908152600160209081526040808320938616835292905220546000198114610f895781811015610f7a57604051637dc7a0d960e11b81526001600160a01b03841660048201526024810182905260448101839052606401610eea565b610f898484848403600061113b565b50505050565b6001600160a01b038316610fb957604051634b637e8f60e11b815260006004820152602401610eea565b6001600160a01b038216610fe35760405163ec442f0560e01b815260006004820152602401610eea565b610f0c838383611210565b6001600160a01b03821661101857604051634b637e8f60e11b815260006004820152602401610eea565b61102482600083611210565b5050565b6005546001600160a01b031633146109f35760405163118cdaa760e01b8152336004820152602401610eea565b600580546001600160a01b038381166001600160a01b0319831681179093556040519116919082907f8be0079c531659141344cd1fd0a4f28419497f9722a3daafe3b4186f6b6457e090600090a35050565b60006006670de0b6b3a76400008304600202600101670de0b6b3a764000084816110d3576110d3611618565b04600101670de0b6b3a764000085816110ee576110ee611618565b040202816110fe576110fe611618565b0492915050565b6001600160a01b03821661112f5760405163ec442f0560e01b815260006004820152602401610eea565b61102460008383611210565b6001600160a01b0384166111655760405163e602df0560e01b815260006004820152602401610eea565b6001600160a01b03831661118f57604051634a1406b160e11b815260006004820152602401610eea565b6001600160a01b0380851660009081526001602090815260408083209387168352929052208290558015610f8957826001600160a01b0316846001600160a01b03167f8c5be1e5ebec7d5bd14f71427d1e84f3dd0314c0f7b2291e5b200ac8c7c3b9258460405161120291815260200190565b60405180910390a350505050565b6001600160a01b03831661123b5780600260008282546112309190611808565b909155506112ad9050565b6001600160a01b0383166000908152602081905260409020548181101561128e5760405163391434e360e21b81526001600160a01b03851660048201526024810182905260448101839052606401610eea565b6001600160a01b03841660009081526020819052604090209082900390555b6001600160a01b0382166112c9576002805482900390556112e8565b6001600160a01b03821660009081526020819052604090208054820190555b816001600160a01b0316836001600160a01b03167fddf252ad1be2c89b69c2b068fc378daa952ba7f163c4a11628f55a4df523b3ef8360405161132d91815260200190565b60405180910390a3505050565b600060208083528351808285015260005b818110156113675785810183015185820160400152820161134b565b506000604082860101526040601f19601f8301168501019250505092915050565b6001600160a01b0381168114610efc57600080fd5b600080604083850312156113b057600080fd5b82356113bb81611388565b946020939093013593505050565b6000806000806000608086880312156113e157600080fd5b85356113ec81611388565b945060208601356113fc81611388565b935060408601359250606086013567ffffffffffffffff8082111561142057600080fd5b818801915088601f83011261143457600080fd5b81358181111561144357600080fd5b89602082850101111561145557600080fd5b9699959850939650602001949392505050565b60008060006060848603121561147d57600080fd5b833561148881611388565b9250602084013561149881611388565b929592945050506040919091013590565b6000602082840312156114bb57600080fd5b5035919050565b6000806000606084860312156114d757600080fd5b83356114e281611388565b925060208401356114f281611388565b9150604084013562ffffff8116811461150a57600080fd5b809150509250925092565b60006020828403121561152757600080fd5b813561153281611388565b9392505050565b6000806040838503121561154c57600080fd5b50508035926020909101359150565b6000806040838503121561156e57600080fd5b823561157981611388565b9150602083013561158981611388565b809150509250929050565b600181811c908216806115a857607f821691505b6020821081036115c857634e487b7160e01b600052602260045260246000fd5b50919050565b6000602082840312156115e057600080fd5b815161153281611388565b634e487b7160e01b600052601160045260246000fd5b8082028115828204841417610647576106476115eb565b634e487b7160e01b600052601260045260246000fd5b60008261163d5761163d611618565b500490565b6000806000806080858703121561165857600080fd5b8451935060208501516001600160801b038116811461167657600080fd5b6040860151606090960151949790965092505050565b81810381811115610647576106476115eb565b6000602082840312156116b157600080fd5b8151801515811461153257600080fd5b60008160020b8360020b806116d8576116d8611618565b627fffff198214600019821416156116f2576116f26115eb565b90059392505050565b60008260020b8260020b028060020b915080821461171b5761171b6115eb565b5092915050565b60008160020b627fffff19810361173b5761173b6115eb565b60000392915050565b81516001600160a01b031681526101608101602083015161177060208401826001600160a01b03169052565b506040830151611787604084018262ffffff169052565b50606083015161179c606084018260020b9052565b5060808301516117b1608084018260020b9052565b5060a083015160a083015260c083015160c083015260e083015160e0830152610100808401518184015250610120808401516117f7828501826001600160a01b03169052565b505061014092830151919092015290565b80820180821115610647576106476115eb56fea2646970667358221220d3dfe36dc2bbee284bdaa781c295a6dc50beb51b1c552593d7467a6031f040b364736f6c63430008140033a2646970667358221220081e48070553fabb88408fa622346115d00f785b1fe83dc81fc5834cef08fabf64736f6c63430008140033",
  "devdoc": {
    "errors": {
      "OwnableInvalidOwner(address)": [
        {
          "details": "The owner is not a valid owner account. (eg. `address(0)`)"
        }
      ],
      "OwnableUnauthorizedAccount(address)": [
        {
          "details": "The caller account is not authorized to perform an operation."
        }
      ]
    },
    "kind": "dev",
    "methods": {
      "owner()": {
        "details": "Returns the address of the current owner."
      },
      "renounceOwnership()": {
        "details": "Leaves the contract without owner. It will not be possible to call `onlyOwner` functions. Can only be called by the current owner. NOTE: Renouncing ownership will leave the contract without an owner, thereby disabling any functionality that is only available to the owner."
      },
      "transferOwnership(address)": {
        "details": "Transfers ownership of the contract to a new account (`newOwner`). Can only be called by the current owner."
      }
    },
    "version": 1
  },
  "userdoc": {
    "kind": "user",
    "methods": {},
    "version": 1
  },
  "storageLayout": {
    "storage": [
      {
        "astId": 8,
        "contract": "contracts/TokenFactory.sol:TokenFactory",
        "label": "_owner",
        "offset": 0,
        "slot": "0",
        "type": "t_address"
      },
      {
        "astId": 4096,
        "contract": "contracts/TokenFactory.sol:TokenFactory",
        "label": "tokenNames",
        "offset": 0,
        "slot": "1",
        "type": "t_mapping(t_string_memory_ptr,t_bool)"
      },
      {
        "astId": 4100,
        "contract": "contracts/TokenFactory.sol:TokenFactory",
        "label": "tokenSymbols",
        "offset": 0,
        "slot": "2",
        "type": "t_mapping(t_string_memory_ptr,t_bool)"
      },
      {
        "astId": 4103,
        "contract": "contracts/TokenFactory.sol:TokenFactory",
        "label": "tokens",
        "offset": 0,
        "slot": "3",
        "type": "t_array(t_address)dyn_storage"
      },
      {
        "astId": 4115,
        "contract": "contracts/TokenFactory.sol:TokenFactory",
        "label": "treasuryWallet",
        "offset": 0,
        "slot": "4",
        "type": "t_address"
      }
    ],
    "types": {
      "t_address": {
        "encoding": "inplace",
        "label": "address",
        "numberOfBytes": "20"
      },
      "t_array(t_address)dyn_storage": {
        "base": "t_address",
        "encoding": "dynamic_array",
        "label": "address[]",
        "numberOfBytes": "32"
      },
      "t_bool": {
        "encoding": "inplace",
        "label": "bool",
        "numberOfBytes": "1"
      },
      "t_mapping(t_string_memory_ptr,t_bool)": {
        "encoding": "mapping",
        "key": "t_string_memory_ptr",
        "label": "mapping(string => bool)",
        "numberOfBytes": "32",
        "value": "t_bool"
      },
      "t_string_memory_ptr": {
        "encoding": "bytes",
        "label": "string",
        "numberOfBytes": "32"
      }
    }
  }
}