{
  "address": "0xBAd03f29961695a6b37Da2ed563CC57C1aCE57F0",
  "abi": [
    {
      "inputs": [
        {
          "internalType": "string",
          "name": "name_",
          "type": "string"
        },
        {
          "internalType": "string",
          "name": "symbol_",
          "type": "string"
        },
        {
          "internalType": "address payable",
          "name": "_dummyWETH",
          "type": "address"
        },
        {
          "internalType": "address",
          "name": "_uniswapV3Factory",
          "type": "address"
        },
        {
          "internalType": "address",
          "name": "_positionManager",
          "type": "address"
        },
        {
          "internalType": "address",
          "name": "_swapRouter",
          "type": "address"
        }
      ],
      "stateMutability": "nonpayable",
      "type": "constructor"
    },
    {
      "inputs": [
        {
          "internalType": "address",
          "name": "spender",
          "type": "address"
        },
        {
          "internalType": "uint256",
          "name": "allowance",
          "type": "uint256"
        },
        {
          "internalType": "uint256",
          "name": "needed",
          "type": "uint256"
        }
      ],
      "name": "ERC20InsufficientAllowance",
      "type": "error"
    },
    {
      "inputs": [
        {
          "internalType": "address",
          "name": "sender",
          "type": "address"
        },
        {
          "internalType": "uint256",
          "name": "balance",
          "type": "uint256"
        },
        {
          "internalType": "uint256",
          "name": "needed",
          "type": "uint256"
        }
      ],
      "name": "ERC20InsufficientBalance",
      "type": "error"
    },
    {
      "inputs": [
        {
          "internalType": "address",
          "name": "approver",
          "type": "address"
        }
      ],
      "name": "ERC20InvalidApprover",
      "type": "error"
    },
    {
      "inputs": [
        {
          "internalType": "address",
          "name": "receiver",
          "type": "address"
        }
      ],
      "name": "ERC20InvalidReceiver",
      "type": "error"
    },
    {
      "inputs": [
        {
          "internalType": "address",
          "name": "sender",
          "type": "address"
        }
      ],
      "name": "ERC20InvalidSender",
      "type": "error"
    },
    {
      "inputs": [
        {
          "internalType": "address",
          "name": "spender",
          "type": "address"
        }
      ],
      "name": "ERC20InvalidSpender",
      "type": "error"
    },
    {
      "inputs": [],
      "name": "InsufficientETHSent",
      "type": "error"
    },
    {
      "inputs": [],
      "name": "LiquidityProvisionLocked",
      "type": "error"
    },
    {
      "inputs": [],
      "name": "MintingExceedsThreshold",
      "type": "error"
    },
    {
      "inputs": [
        {
          "internalType": "address",
          "name": "owner",
          "type": "address"
        }
      ],
      "name": "OwnableInvalidOwner",
      "type": "error"
    },
    {
      "inputs": [
        {
          "internalType": "address",
          "name": "account",
          "type": "address"
        }
      ],
      "name": "OwnableUnauthorizedAccount",
      "type": "error"
    },
    {
      "inputs": [],
      "name": "ReentrancyGuardReentrantCall",
      "type": "error"
    },
    {
      "inputs": [],
      "name": "UnauthorizedAccess",
      "type": "error"
    },
    {
      "inputs": [],
      "name": "ZeroAddressUsed",
      "type": "error"
    },
    {
      "anonymous": false,
      "inputs": [
        {
          "indexed": true,
          "internalType": "address",
          "name": "owner",
          "type": "address"
        },
        {
          "indexed": true,
          "internalType": "address",
          "name": "spender",
          "type": "address"
        },
        {
          "indexed": false,
          "internalType": "uint256",
          "name": "value",
          "type": "uint256"
        }
      ],
      "name": "Approval",
      "type": "event"
    },
    {
      "anonymous": false,
      "inputs": [
        {
          "indexed": false,
          "internalType": "uint256",
          "name": "ethAmount",
          "type": "uint256"
        },
        {
          "indexed": false,
          "internalType": "uint256",
          "name": "tokenAmount",
          "type": "uint256"
        },
        {
          "indexed": false,
          "internalType": "uint256",
          "name": "liquidity",
          "type": "uint256"
        }
      ],
      "name": "LiquidityAdded",
      "type": "event"
    },
    {
      "anonymous": false,
      "inputs": [
        {
          "indexed": true,
          "internalType": "address",
          "name": "previousOwner",
          "type": "address"
        },
        {
          "indexed": true,
          "internalType": "address",
          "name": "newOwner",
          "type": "address"
        }
      ],
      "name": "OwnershipTransferred",
      "type": "event"
    },
    {
      "anonymous": false,
      "inputs": [
        {
          "indexed": true,
          "internalType": "address",
          "name": "from",
          "type": "address"
        },
        {
          "indexed": false,
          "internalType": "uint256",
          "name": "amount",
          "type": "uint256"
        }
      ],
      "name": "TokenBurned",
      "type": "event"
    },
    {
      "anonymous": false,
      "inputs": [
        {
          "indexed": true,
          "internalType": "address",
          "name": "to",
          "type": "address"
        },
        {
          "indexed": false,
          "internalType": "uint256",
          "name": "amount",
          "type": "uint256"
        }
      ],
      "name": "TokenMinted",
      "type": "event"
    },
    {
      "anonymous": false,
      "inputs": [
        {
          "indexed": true,
          "internalType": "address",
          "name": "from",
          "type": "address"
        },
        {
          "indexed": true,
          "internalType": "address",
          "name": "to",
          "type": "address"
        },
        {
          "indexed": false,
          "internalType": "uint256",
          "name": "value",
          "type": "uint256"
        }
      ],
      "name": "Transfer",
      "type": "event"
    },
    {
      "inputs": [],
      "name": "MAX_TOKENS",
      "outputs": [
        {
          "internalType": "uint256",
          "name": "",
          "type": "uint256"
        }
      ],
      "stateMutability": "view",
      "type": "function"
    },
    {
      "inputs": [],
      "name": "MIN_MINT_AMOUNT",
      "outputs": [
        {
          "internalType": "uint256",
          "name": "",
          "type": "uint256"
        }
      ],
      "stateMutability": "view",
      "type": "function"
    },
    {
      "inputs": [
        {
          "internalType": "uint256",
          "name": "numTokens",
          "type": "uint256"
        }
      ],
      "name": "_sumOfPriceToNTokens",
      "outputs": [
        {
          "internalType": "uint256",
          "name": "",
          "type": "uint256"
        }
      ],
      "stateMutability": "view",
      "type": "function"
    },
    {
      "inputs": [],
      "name": "_wrapETH",
      "outputs": [],
      "stateMutability": "payable",
      "type": "function"
    },
    {
      "inputs": [
        {
          "internalType": "address",
          "name": "owner",
          "type": "address"
        },
        {
          "internalType": "address",
          "name": "spender",
          "type": "address"
        }
      ],
      "name": "allowance",
      "outputs": [
        {
          "internalType": "uint256",
          "name": "",
          "type": "uint256"
        }
      ],
      "stateMutability": "view",
      "type": "function"
    },
    {
      "inputs": [
        {
          "internalType": "address",
          "name": "spender",
          "type": "address"
        },
        {
          "internalType": "uint256",
          "name": "value",
          "type": "uint256"
        }
      ],
      "name": "approve",
      "outputs": [
        {
          "internalType": "bool",
          "name": "",
          "type": "bool"
        }
      ],
      "stateMutability": "nonpayable",
      "type": "function"
    },
    {
      "inputs": [
        {
          "internalType": "address",
          "name": "_choose",
          "type": "address"
        },
        {
          "internalType": "address",
          "name": "_token",
          "type": "address"
        }
      ],
      "name": "approveContract",
      "outputs": [],
      "stateMutability": "nonpayable",
      "type": "function"
    },
    {
      "inputs": [
        {
          "internalType": "address",
          "name": "account",
          "type": "address"
        }
      ],
      "name": "balanceOf",
      "outputs": [
        {
          "internalType": "uint256",
          "name": "",
          "type": "uint256"
        }
      ],
      "stateMutability": "view",
      "type": "function"
    },
    {
      "inputs": [
        {
          "internalType": "uint256",
          "name": "amount",
          "type": "uint256"
        }
      ],
      "name": "burn",
      "outputs": [],
      "stateMutability": "nonpayable",
      "type": "function"
    },
    {
      "inputs": [
        {
          "internalType": "uint256",
          "name": "amount",
          "type": "uint256"
        }
      ],
      "name": "calculateBurnProceeds",
      "outputs": [
        {
          "internalType": "uint256",
          "name": "",
          "type": "uint256"
        }
      ],
      "stateMutability": "view",
      "type": "function"
    },
    {
      "inputs": [
        {
          "internalType": "uint256",
          "name": "currentSupply",
          "type": "uint256"
        },
        {
          "internalType": "uint256",
          "name": "mintAmount",
          "type": "uint256"
        }
      ],
      "name": "calculateMintCost",
      "outputs": [
        {
          "internalType": "uint256",
          "name": "",
          "type": "uint256"
        }
      ],
      "stateMutability": "view",
      "type": "function"
    },
    {
      "inputs": [
        {
          "internalType": "uint256",
          "name": "tokenId",
          "type": "uint256"
        }
      ],
      "name": "collectFees",
      "outputs": [],
      "stateMutability": "nonpayable",
      "type": "function"
    },
    {
      "inputs": [
        {
          "internalType": "address",
          "name": "tokenA",
          "type": "address"
        },
        {
          "internalType": "address",
          "name": "tokenB",
          "type": "address"
        },
        {
          "internalType": "uint24",
          "name": "fee",
          "type": "uint24"
        }
      ],
      "name": "createAndInitializePoolIfNecessary",
      "outputs": [],
      "stateMutability": "nonpayable",
      "type": "function"
    },
    {
      "inputs": [],
      "name": "decimals",
      "outputs": [
        {
          "internalType": "uint8",
          "name": "",
          "type": "uint8"
        }
      ],
      "stateMutability": "view",
      "type": "function"
    },
    {
      "inputs": [
        {
          "internalType": "address",
          "name": "tokenA",
          "type": "address"
        },
        {
          "internalType": "address",
          "name": "tokenB",
          "type": "address"
        },
        {
          "internalType": "uint24",
          "name": "fee",
          "type": "uint24"
        }
      ],
      "name": "getPoolAddress",
      "outputs": [
        {
          "internalType": "address",
          "name": "",
          "type": "address"
        }
      ],
      "stateMutability": "view",
      "type": "function"
    },
    {
      "inputs": [
        {
          "internalType": "address",
          "name": "_pool",
          "type": "address"
        }
      ],
      "name": "getSlot0",
      "outputs": [
        {
          "components": [
            {
              "internalType": "uint160",
              "name": "sqrtPriceX96",
              "type": "uint160"
            },
            {
              "internalType": "int24",
              "name": "tick",
              "type": "int24"
            },
            {
              "internalType": "bool",
              "name": "unlocked",
              "type": "bool"
            }
          ],
          "internalType": "struct Slot0",
          "name": "",
          "type": "tuple"
        }
      ],
      "stateMutability": "view",
      "type": "function"
    },
    {
      "inputs": [],
      "name": "isLiquidityProvisionLocked",
      "outputs": [
        {
          "internalType": "bool",
          "name": "",
          "type": "bool"
        }
      ],
      "stateMutability": "view",
      "type": "function"
    },
    {
      "inputs": [],
      "name": "liquidityProvisionThreshold",
      "outputs": [
        {
          "internalType": "uint256",
          "name": "",
          "type": "uint256"
        }
      ],
      "stateMutability": "view",
      "type": "function"
    },
    {
      "inputs": [
        {
          "internalType": "uint256",
          "name": "amount",
          "type": "uint256"
        }
      ],
      "name": "mint",
      "outputs": [],
      "stateMutability": "payable",
      "type": "function"
    },
    {
      "inputs": [
        {
          "internalType": "uint256",
          "name": "amount0ToAdd",
          "type": "uint256"
        },
        {
          "internalType": "uint256",
          "name": "amount1ToAdd",
          "type": "uint256"
        },
        {
          "internalType": "address",
          "name": "_token",
          "type": "address"
        }
      ],
      "name": "mintNewPosition",
      "outputs": [
        {
          "internalType": "uint256",
          "name": "tokenId",
          "type": "uint256"
        },
        {
          "internalType": "uint128",
          "name": "liquidity",
          "type": "uint128"
        },
        {
          "internalType": "uint256",
          "name": "amount0",
          "type": "uint256"
        },
        {
          "internalType": "uint256",
          "name": "amount1",
          "type": "uint256"
        }
      ],
      "stateMutability": "payable",
      "type": "function"
    },
    {
      "inputs": [],
      "name": "name",
      "outputs": [
        {
          "internalType": "string",
          "name": "",
          "type": "string"
        }
      ],
      "stateMutability": "view",
      "type": "function"
    },
    {
      "inputs": [
        {
          "internalType": "address",
          "name": "",
          "type": "address"
        },
        {
          "internalType": "address",
          "name": "",
          "type": "address"
        },
        {
          "internalType": "uint256",
          "name": "",
          "type": "uint256"
        },
        {
          "internalType": "bytes",
          "name": "",
          "type": "bytes"
        }
      ],
      "name": "onERC721Received",
      "outputs": [
        {
          "internalType": "bytes4",
          "name": "",
          "type": "bytes4"
        }
      ],
      "stateMutability": "pure",
      "type": "function"
    },
    {
      "inputs": [],
      "name": "owner",
      "outputs": [
        {
          "internalType": "address",
          "name": "",
          "type": "address"
        }
      ],
      "stateMutability": "view",
      "type": "function"
    },
    {
      "inputs": [],
      "name": "positionManager",
      "outputs": [
        {
          "internalType": "contract INonfungiblePositionManager",
          "name": "",
          "type": "address"
        }
      ],
      "stateMutability": "view",
      "type": "function"
    },
    {
      "inputs": [],
      "name": "renounceOwnership",
      "outputs": [],
      "stateMutability": "nonpayable",
      "type": "function"
    },
    {
      "inputs": [
        {
          "internalType": "address",
          "name": "_treasuryWallet",
          "type": "address"
        }
      ],
      "name": "setTreasuryWallet",
      "outputs": [],
      "stateMutability": "nonpayable",
      "type": "function"
    },
    {
      "inputs": [],
      "name": "swapRouter",
      "outputs": [
        {
          "internalType": "contract ISwapRouter",
          "name": "",
          "type": "address"
        }
      ],
      "stateMutability": "view",
      "type": "function"
    },
    {
      "inputs": [],
      "name": "symbol",
      "outputs": [
        {
          "internalType": "string",
          "name": "",
          "type": "string"
        }
      ],
      "stateMutability": "view",
      "type": "function"
    },
    {
      "inputs": [],
      "name": "totalSupply",
      "outputs": [
        {
          "internalType": "uint256",
          "name": "",
          "type": "uint256"
        }
      ],
      "stateMutability": "view",
      "type": "function"
    },
    {
      "inputs": [
        {
          "internalType": "address",
          "name": "to",
          "type": "address"
        },
        {
          "internalType": "uint256",
          "name": "value",
          "type": "uint256"
        }
      ],
      "name": "transfer",
      "outputs": [
        {
          "internalType": "bool",
          "name": "",
          "type": "bool"
        }
      ],
      "stateMutability": "nonpayable",
      "type": "function"
    },
    {
      "inputs": [
        {
          "internalType": "address",
          "name": "from",
          "type": "address"
        },
        {
          "internalType": "address",
          "name": "to",
          "type": "address"
        },
        {
          "internalType": "uint256",
          "name": "value",
          "type": "uint256"
        }
      ],
      "name": "transferFrom",
      "outputs": [
        {
          "internalType": "bool",
          "name": "",
          "type": "bool"
        }
      ],
      "stateMutability": "nonpayable",
      "type": "function"
    },
    {
      "inputs": [
        {
          "internalType": "address",
          "name": "newOwner",
          "type": "address"
        }
      ],
      "name": "transferOwnership",
      "outputs": [],
      "stateMutability": "nonpayable",
      "type": "function"
    },
    {
      "inputs": [],
      "name": "treasuryWallet",
      "outputs": [
        {
          "internalType": "address",
          "name": "",
          "type": "address"
        }
      ],
      "stateMutability": "view",
      "type": "function"
    },
    {
      "inputs": [],
      "name": "unideployer",
      "outputs": [
        {
          "internalType": "contract IUniswapV3PoolDeployer",
          "name": "",
          "type": "address"
        }
      ],
      "stateMutability": "view",
      "type": "function"
    },
    {
      "inputs": [],
      "name": "uniswapV3Factory",
      "outputs": [
        {
          "internalType": "contract IUniswapV3Factory",
          "name": "",
          "type": "address"
        }
      ],
      "stateMutability": "view",
      "type": "function"
    },
    {
      "inputs": [],
      "name": "weth",
      "outputs": [
        {
          "internalType": "contract IWETH",
          "name": "",
          "type": "address"
        }
      ],
      "stateMutability": "view",
      "type": "function"
    }
  ],
  "transactionHash": "0xa68a00e5aa8f8f3897ffa472b80c1f227029d5b4b0ba1cfb9882e2686fbf1c57",
  "args": [
    "FARTBEANS2",
    "BEANS2",
    "0x4200000000000000000000000000000000000006",
    "0x4752ba5DBc23f44D87826276BF6Fd6b1C372aD24",
    "0x27F971cb582BF9E50F397e4d29a5C7A34f11faA2",
    "0x94cC0AaC535CCDB3C01d6787D6413C739ae12bc4"
  ],
  "numDeployments": 50,
  "solcInputHash": "fb2f50af209c2f1977564875d0fb5057",
  "bytecode": "0x6101006040526801a055690d9db800006007556008805460ff191690553480156200002957600080fd5b5060405162002b8a38038062002b8a8339810160408190526200004c91620006f6565b33868660036200005d838262000845565b5060046200006c828262000845565b5050506001600160a01b0381166200009f57604051631e4fbdf760e01b8152600060048201526024015b60405180910390fd5b620000aa816200023b565b5060016006556001600160a01b0383811660805282811660c05281811660a05260088054610100600160a81b03191661010087841681029190911791829055620000fb92910416306127106200028d565b608051600854604051630b4c774160e11b81526101009091046001600160a01b03908116600483015230602483015261271060448301526000921690631698ee8290606401602060405180830381865afa1580156200015e573d6000803e3d6000fd5b505050506040513d601f19601f8201168201806040525081019062000184919062000911565b608051600854604051630b4c774160e11b81526001600160a01b036101009092048216600482015230602482015261271060448201529293501690631698ee8290606401602060405180830381865afa158015620001e6573d6000803e3d6000fd5b505050506040513d601f19601f820116820180604052508101906200020c919062000911565b6001600160a01b031660e0526200022e61dead670de0b6b3a7640000620004a7565b5050505050505062000960565b600580546001600160a01b038381166001600160a01b0319831681179093556040519116919082907f8be0079c531659141344cd1fd0a4f28419497f9722a3daafe3b4186f6b6457e090600090a35050565b608051604051630b4c774160e11b81526001600160a01b038581166004830152848116602483015262ffffff841660448301526c0100000000000000000000000092600092911690631698ee8290606401602060405180830381865afa158015620002fc573d6000803e3d6000fd5b505050506040513d601f19601f8201168201806040525081019062000322919062000911565b90506001600160a01b038116620004a05760805160405163a167129560e01b81526001600160a01b038781166004830152868116602483015262ffffff861660448301529091169063a1671295906064016020604051808303816000875af115801562000393573d6000803e3d6000fd5b505050506040513d601f19601f82011682018060405250810190620003b9919062000911565b50608051604051630b4c774160e11b81526001600160a01b038781166004830152868116602483015262ffffff8616604483015290911690631698ee8290606401602060405180830381865afa15801562000418573d6000803e3d6000fd5b505050506040513d601f19601f820116820180604052508101906200043e919062000911565b60405163f637731d60e01b81526001600160a01b0384811660048301529192509082169063f637731d90602401600060405180830381600087803b1580156200048657600080fd5b505af11580156200049b573d6000803e3d6000fd5b505050505b5050505050565b6001600160a01b038216620004d35760405163ec442f0560e01b81526000600482015260240162000096565b620004e160008383620004e5565b5050565b6001600160a01b0383166200051457806002600082825462000508919062000938565b90915550620005889050565b6001600160a01b03831660009081526020819052604090205481811015620005695760405163391434e360e21b81526001600160a01b0385166004820152602481018290526044810183905260640162000096565b6001600160a01b03841660009081526020819052604090209082900390555b6001600160a01b038216620005a657600280548290039055620005c5565b6001600160a01b03821660009081526020819052604090208054820190555b816001600160a01b0316836001600160a01b03167fddf252ad1be2c89b69c2b068fc378daa952ba7f163c4a11628f55a4df523b3ef836040516200060b91815260200190565b60405180910390a3505050565b634e487b7160e01b600052604160045260246000fd5b600082601f8301126200064057600080fd5b81516001600160401b03808211156200065d576200065d62000618565b604051601f8301601f19908116603f0116810190828211818310171562000688576200068862000618565b81604052838152602092508683858801011115620006a557600080fd5b600091505b83821015620006c95785820183015181830184015290820190620006aa565b600093810190920192909252949350505050565b6001600160a01b0381168114620006f357600080fd5b50565b60008060008060008060c087890312156200071057600080fd5b86516001600160401b03808211156200072857600080fd5b620007368a838b016200062e565b975060208901519150808211156200074d57600080fd5b506200075c89828a016200062e565b95505060408701516200076f81620006dd565b60608801519094506200078281620006dd565b60808801519093506200079581620006dd565b60a0880151909250620007a881620006dd565b809150509295509295509295565b600181811c90821680620007cb57607f821691505b602082108103620007ec57634e487b7160e01b600052602260045260246000fd5b50919050565b601f8211156200084057600081815260208120601f850160051c810160208610156200081b5750805b601f850160051c820191505b818110156200083c5782815560010162000827565b5050505b505050565b81516001600160401b0381111562000861576200086162000618565b6200087981620008728454620007b6565b84620007f2565b602080601f831160018114620008b15760008415620008985750858301515b600019600386901b1c1916600185901b1785556200083c565b600085815260208120601f198616915b82811015620008e257888601518255948401946001909101908401620008c1565b5085821015620009015787850151600019600388901b60f8161c191681555b5050505050600190811b01905550565b6000602082840312156200092457600080fd5b81516200093181620006dd565b9392505050565b808201808211156200095a57634e487b7160e01b600052601160045260246000fd5b92915050565b60805160a05160c05160e0516121b8620009d2600039600061040a0152600081816104d1015281816111d90152818161141d015281816114c001526115ea015260006106550152600081816103d60152818161086301528181610904015281816109980152610b6801526121b86000f3fe60806040526004361061020f5760003560e01c8063791b98bc11610118578063b17acdcd116100a0578063dd62ed3e1161006f578063dd62ed3e14610692578063ec868382146106d8578063f2fde38b146106f8578063f47c84c514610718578063fc90dfe21461073857600080fd5b8063b17acdcd146105d3578063be9923b5146105f3578063c31c9c0714610643578063d56926a01461067757600080fd5b806395d89b41116100e757806395d89b411461054b578063a0712d6814610560578063a145288f14610573578063a8602fea14610593578063a9059cbb146105b357600080fd5b8063791b98bc146104bf5780637b3a5681146104f35780638160b38d1461050d5780638da5cb5b1461052d57600080fd5b806342966c681161019b578063696d62831161016a578063696d62831461042c5780636bc6d34d1461044c5780636d2e7c691461046c57806370a0823114610474578063715018a6146104aa57600080fd5b806342966c68146103845780634626402b146103a45780635b549182146103c457806369103180146103f857600080fd5b806323b872dd116101e257806323b872dd146102d3578063313ce567146102f357806333527eac1461030f57806335f167d0146103255780633fc8cef31461034757600080fd5b806306fdde0314610214578063095ea7b31461023f578063150b7a021461026f57806318160ddd146102b4575b600080fd5b34801561022057600080fd5b50610229610773565b6040516102369190611a81565b60405180910390f35b34801561024b57600080fd5b5061025f61025a366004611ae4565b610805565b6040519015158152602001610236565b34801561027b57600080fd5b5061029b61028a366004611b10565b630a85bd0160e11b95945050505050565b6040516001600160e01b03199091168152602001610236565b3480156102c057600080fd5b506002545b604051908152602001610236565b3480156102df57600080fd5b5061025f6102ee366004611baf565b61081f565b3480156102ff57600080fd5b5060405160128152602001610236565b34801561031b57600080fd5b506102c560075481565b34801561033157600080fd5b50610345610340366004611bf0565b610843565b005b34801561035357600080fd5b5060085461036c9061010090046001600160a01b031681565b6040516001600160a01b039091168152602001610236565b34801561039057600080fd5b5061034561039f366004611c43565b610a79565b3480156103b057600080fd5b5060095461036c906001600160a01b031681565b3480156103d057600080fd5b5061036c7f000000000000000000000000000000000000000000000000000000000000000081565b34801561040457600080fd5b5061036c7f000000000000000000000000000000000000000000000000000000000000000081565b34801561043857600080fd5b5061036c610447366004611bf0565b610b4e565b34801561045857600080fd5b50610345610467366004611c5c565b610bea565b610345610d85565b34801561048057600080fd5b506102c561048f366004611c95565b6001600160a01b031660009081526020819052604090205490565b3480156104b657600080fd5b50610345610e86565b3480156104cb57600080fd5b5061036c7f000000000000000000000000000000000000000000000000000000000000000081565b3480156104ff57600080fd5b5060085461025f9060ff1681565b34801561051957600080fd5b506102c5610528366004611cb2565b610e9a565b34801561053957600080fd5b506005546001600160a01b031661036c565b34801561055757600080fd5b50610229610ed8565b61034561056e366004611c43565b610ee7565b34801561057f57600080fd5b506102c561058e366004611c43565b611086565b34801561059f57600080fd5b506103456105ae366004611c95565b611116565b3480156105bf57600080fd5b5061025f6105ce366004611ae4565b611167565b3480156105df57600080fd5b506103456105ee366004611c43565b611175565b3480156105ff57600080fd5b5061061361060e366004611c95565b61124b565b6040805182516001600160a01b0316815260208084015160020b9082015291810151151590820152606001610236565b34801561064f57600080fd5b5061036c7f000000000000000000000000000000000000000000000000000000000000000081565b34801561068357600080fd5b506102c566038d7ea4c6800081565b34801561069e57600080fd5b506102c56106ad366004611c5c565b6001600160a01b03918216600090815260016020908152604080832093909416825291909152205490565b3480156106e457600080fd5b506102c56106f3366004611c43565b61130b565b34801561070457600080fd5b50610345610713366004611c95565b6113d3565b34801561072457600080fd5b506102c56b0d97ddb9f8b1d3cdd880000081565b61074b610746366004611cd4565b61140e565b604080519485526001600160801b039093166020850152918301526060820152608001610236565b60606003805461078290611d02565b80601f01602080910402602001604051908101604052809291908181526020018280546107ae90611d02565b80156107fb5780601f106107d0576101008083540402835291602001916107fb565b820191906000526020600020905b8154815290600101906020018083116107de57829003601f168201915b5050505050905090565b600033610813818585611689565b60019150505b92915050565b60003361082d858285611696565b61083885858561170e565b506001949350505050565b604051630b4c774160e11b8152600160601b906000906001600160a01b037f00000000000000000000000000000000000000000000000000000000000000001690631698ee829061089c90889088908890600401611d3c565b602060405180830381865afa1580156108b9573d6000803e3d6000fd5b505050506040513d601f19601f820116820180604052508101906108dd9190611d64565b90506001600160a01b038116610a725760405163a167129560e01b81526001600160a01b037f0000000000000000000000000000000000000000000000000000000000000000169063a16712959061093d90889088908890600401611d3c565b6020604051808303816000875af115801561095c573d6000803e3d6000fd5b505050506040513d601f19601f820116820180604052508101906109809190611d64565b50604051630b4c774160e11b81526001600160a01b037f00000000000000000000000000000000000000000000000000000000000000001690631698ee82906109d190889088908890600401611d3c565b602060405180830381865afa1580156109ee573d6000803e3d6000fd5b505050506040513d601f19601f82011682018060405250810190610a129190611d64565b60405163f637731d60e01b81526001600160a01b0384811660048301529192509082169063f637731d90602401600060405180830381600087803b158015610a5957600080fd5b505af1158015610a6d573d6000803e3d6000fd5b505050505b5050505050565b610a8161176d565b60085460ff1615610aa557604051633a0d72d160e21b815260040160405180910390fd5b6000610ab082611086565b905047811115610ad35760405163311c9fd160e01b815260040160405180910390fd5b610add3383611797565b604051339082156108fc029083906000818181858888f19350505050158015610b0a573d6000803e3d6000fd5b5060405182815233907f1af5163f80e79b5e554f61e1d052084d3a3fe1166e42a265798c4e2ddce8ffa29060200160405180910390a250610b4b6001600655565b50565b604051630b4c774160e11b81526000906001600160a01b037f00000000000000000000000000000000000000000000000000000000000000001690631698ee8290610ba190879087908790600401611d3c565b602060405180830381865afa158015610bbe573d6000803e3d6000fd5b505050506040513d601f19601f82011682018060405250810190610be29190611d64565b949350505050565b610bf26117cd565b60405163095ea7b360e01b81526001600160a01b03831660048201526f0785ee10d5da46d900f436a0000000006024820152309063095ea7b3906044016020604051808303816000875af1158015610c4e573d6000803e3d6000fd5b505050506040513d601f19601f82011682018060405250810190610c729190611d96565b5060085460405163095ea7b360e01b81526001600160a01b0384811660048301526e13426172c74d822b878fe80000000060248301526101009092049091169063095ea7b3906044016020604051808303816000875af1158015610cda573d6000803e3d6000fd5b505050506040513d601f19601f82011682018060405250810190610cfe9190611d96565b5060405163095ea7b360e01b81526001600160a01b0383811660048301526e13426172c74d822b878fe800000000602483015282169063095ea7b3906044016020604051808303816000875af1158015610d5c573d6000803e3d6000fd5b505050506040513d601f19601f82011682018060405250810190610d809190611d96565b505050565b60085461010090046001600160a01b031680610ddf5760405162461bcd60e51b8152602060048201526014602482015273496e76616c69642057455448206164647265737360601b60448201526064015b60405180910390fd5b6000816001600160a01b03164760405160006040518083038185875af1925050503d8060008114610e2c576040519150601f19603f3d011682016040523d82523d6000602084013e610e31565b606091505b5050905080610e825760405162461bcd60e51b815260206004820152601d60248201527f45544820746f205745544820636f6e76657273696f6e206661696c65640000006044820152606401610dd6565b5050565b610e8e6117cd565b610e9860006117fa565b565b600082600003610eb857610eb16106f38385611dc7565b9050610819565b610ec18361130b565b610ece6106f38486611dc7565b610eb19190611dda565b60606004805461078290611d02565b60085460ff1615610f0b57604051633a0d72d160e21b815260040160405180910390fd5b6001811015610f665760405162461bcd60e51b815260206004820152602160248201527f4d696e7420616d6f756e74206d75737420626520686967686572207468616e206044820152603160f81b6064820152608401610dd6565b6000610f7a610f7460025490565b83610e9a565b905080341015610fc45760405162461bcd60e51b8152602060048201526015602482015274125b9cdd59999a58da595b9d08115512081cd95b9d605a1b6044820152606401610dd6565b60006064610fd384600f611ded565b610fdd9190611e1a565b9050610fe9308261184c565b6000610ff58285611dda565b9050611001338261184c565b8234111561104157336108fc6110178534611dda565b6040518115909202916000818181858888f1935050505015801561103f573d6000803e3d6000fd5b505b6008805460ff1916905560405184815233907fb9144c96c86541f6fa89c9f2f02495cccf4b08cd6643e26d34ee00aa586558a89060200160405180910390a250505050565b60008061109260025490565b9050808311156110ef5760405162461bcd60e51b815260206004820152602260248201527f4275726e20616d6f756e7420657863656564732063757272656e7420737570706044820152616c7960f01b6064820152608401610dd6565b6110fc6106f38483611dda565b6111058261130b565b61110f9190611dda565b9392505050565b61111e6117cd565b6001600160a01b03811661114557604051635d9de06f60e01b815260040160405180910390fd5b600980546001600160a01b0319166001600160a01b0392909216919091179055565b60003361081381858561170e565b6040805160808101825282815233602082019081526001600160801b0382840181815260608401828152945163fc6f786560e01b81528451600482015292516001600160a01b039081166024850152905182166044840152935116606482015290917f0000000000000000000000000000000000000000000000000000000000000000169063fc6f78659060840160408051808303816000875af1158015611221573d6000803e3d6000fd5b505050506040513d601f19601f820116820180604052508101906112459190611e78565b50505050565b60408051606081018252600080825260208201819052918101919091526000829050600080826001600160a01b0316633850c7bd6040518163ffffffff1660e01b815260040160e060405180830381865afa1580156112ae573d6000803e3d6000fd5b505050506040513d601f19601f820116820180604052508101906112d29190611eae565b5050604080516060810182526001600160a01b03909616865260029490940b602086015250506001918301919091525095945050505050565b6000808261131860025490565b6113229190611dc7565b9050670de0b6b3a764000083101561138c5760405162461bcd60e51b815260206004820152602760248201527f4e756d626572206f6620746f6b656e73206d7573742062652067726561746572604482015266207468616e203160c81b6064820152608401610dd6565b60006113a560026b0d97ddb9f8b1d3cdd880000061202c565b6007546113b360028561202c565b6113bd9190611ded565b6113c79190611e1a565b610be290612710611dc7565b6113db6117cd565b6001600160a01b03811661140557604051631e4fbdf760e01b815260006004820152602401610dd6565b610b4b816117fa565b60405163095ea7b360e01b81527f00000000000000000000000000000000000000000000000000000000000000006001600160a01b0316600482015260248101849052600090819081908190309063095ea7b3906044016020604051808303816000875af1158015611484573d6000803e3d6000fd5b505050506040513d601f19601f820116820180604052508101906114a89190611d96565b5060405163095ea7b360e01b81526001600160a01b037f0000000000000000000000000000000000000000000000000000000000000000811660048301526024820188905286169063095ea7b3906044016020604051808303816000875af1158015611518573d6000803e3d6000fd5b505050506040513d601f19601f8201168201806040525081019061153c9190611d96565b5060408051610160810182526001600160a01b0387168152306020820152612710918101919091526000906060810160c861157b81620d89e71961203b565b6115859190612075565b60020b815260200160c88061159d620d89e71961209c565b6115a7919061203b565b6115b19190612075565b60020b81526020018981526020018881526020016000815260200160008152602001306001600160a01b031681526020014281525090507f00000000000000000000000000000000000000000000000000000000000000006001600160a01b03166388316456826040518263ffffffff1660e01b815260040161163491906120be565b6080604051808303816000875af1158015611653573d6000803e3d6000fd5b505050506040513d601f19601f820116820180604052508101906116779190611e2e565b929b919a509850909650945050505050565b610d808383836001611882565b6001600160a01b03838116600090815260016020908152604080832093861683529290522054600019811461124557818110156116ff57604051637dc7a0d960e11b81526001600160a01b03841660048201526024810182905260448101839052606401610dd6565b61124584848484036000611882565b6001600160a01b03831661173857604051634b637e8f60e11b815260006004820152602401610dd6565b6001600160a01b0382166117625760405163ec442f0560e01b815260006004820152602401610dd6565b610d80838383611957565b60026006540361179057604051633ee5aeb560e01b815260040160405180910390fd5b6002600655565b6001600160a01b0382166117c157604051634b637e8f60e11b815260006004820152602401610dd6565b610e8282600083611957565b6005546001600160a01b03163314610e985760405163118cdaa760e01b8152336004820152602401610dd6565b600580546001600160a01b038381166001600160a01b0319831681179093556040519116919082907f8be0079c531659141344cd1fd0a4f28419497f9722a3daafe3b4186f6b6457e090600090a35050565b6001600160a01b0382166118765760405163ec442f0560e01b815260006004820152602401610dd6565b610e8260008383611957565b6001600160a01b0384166118ac5760405163e602df0560e01b815260006004820152602401610dd6565b6001600160a01b0383166118d657604051634a1406b160e11b815260006004820152602401610dd6565b6001600160a01b038085166000908152600160209081526040808320938716835292905220829055801561124557826001600160a01b0316846001600160a01b03167f8c5be1e5ebec7d5bd14f71427d1e84f3dd0314c0f7b2291e5b200ac8c7c3b9258460405161194991815260200190565b60405180910390a350505050565b6001600160a01b0383166119825780600260008282546119779190611dc7565b909155506119f49050565b6001600160a01b038316600090815260208190526040902054818110156119d55760405163391434e360e21b81526001600160a01b03851660048201526024810182905260448101839052606401610dd6565b6001600160a01b03841660009081526020819052604090209082900390555b6001600160a01b038216611a1057600280548290039055611a2f565b6001600160a01b03821660009081526020819052604090208054820190555b816001600160a01b0316836001600160a01b03167fddf252ad1be2c89b69c2b068fc378daa952ba7f163c4a11628f55a4df523b3ef83604051611a7491815260200190565b60405180910390a3505050565b600060208083528351808285015260005b81811015611aae57858101830151858201604001528201611a92565b506000604082860101526040601f19601f8301168501019250505092915050565b6001600160a01b0381168114610b4b57600080fd5b60008060408385031215611af757600080fd5b8235611b0281611acf565b946020939093013593505050565b600080600080600060808688031215611b2857600080fd5b8535611b3381611acf565b94506020860135611b4381611acf565b935060408601359250606086013567ffffffffffffffff80821115611b6757600080fd5b818801915088601f830112611b7b57600080fd5b813581811115611b8a57600080fd5b896020828501011115611b9c57600080fd5b9699959850939650602001949392505050565b600080600060608486031215611bc457600080fd5b8335611bcf81611acf565b92506020840135611bdf81611acf565b929592945050506040919091013590565b600080600060608486031215611c0557600080fd5b8335611c1081611acf565b92506020840135611c2081611acf565b9150604084013562ffffff81168114611c3857600080fd5b809150509250925092565b600060208284031215611c5557600080fd5b5035919050565b60008060408385031215611c6f57600080fd5b8235611c7a81611acf565b91506020830135611c8a81611acf565b809150509250929050565b600060208284031215611ca757600080fd5b813561110f81611acf565b60008060408385031215611cc557600080fd5b50508035926020909101359150565b600080600060608486031215611ce957600080fd5b83359250602084013591506040840135611c3881611acf565b600181811c90821680611d1657607f821691505b602082108103611d3657634e487b7160e01b600052602260045260246000fd5b50919050565b6001600160a01b03938416815291909216602082015262ffffff909116604082015260600190565b600060208284031215611d7657600080fd5b815161110f81611acf565b80518015158114611d9157600080fd5b919050565b600060208284031215611da857600080fd5b61110f82611d81565b634e487b7160e01b600052601160045260246000fd5b8082018082111561081957610819611db1565b8181038181111561081957610819611db1565b808202811582820484141761081957610819611db1565b634e487b7160e01b600052601260045260246000fd5b600082611e2957611e29611e04565b500490565b60008060008060808587031215611e4457600080fd5b8451935060208501516001600160801b0381168114611e6257600080fd5b6040860151606090960151949790965092505050565b60008060408385031215611e8b57600080fd5b505080516020909101519092909150565b805161ffff81168114611d9157600080fd5b600080600080600080600060e0888a031215611ec957600080fd5b8751611ed481611acf565b8097505060208801518060020b8114611eec57600080fd5b9550611efa60408901611e9c565b9450611f0860608901611e9c565b9350611f1660808901611e9c565b925060a088015160ff81168114611f2c57600080fd5b9150611f3a60c08901611d81565b905092959891949750929550565b600181815b80851115611f83578160001904821115611f6957611f69611db1565b80851615611f7657918102915b93841c9390800290611f4d565b509250929050565b600082611f9a57506001610819565b81611fa757506000610819565b8160018114611fbd5760028114611fc757611fe3565b6001915050610819565b60ff841115611fd857611fd8611db1565b50506001821b610819565b5060208310610133831016604e8410600b8410161715612006575081810a610819565b6120108383611f48565b806000190482111561202457612024611db1565b029392505050565b600061110f60ff841683611f8b565b60008160020b8360020b8061205257612052611e04565b627fffff1982146000198214161561206c5761206c611db1565b90059392505050565b60008260020b8260020b028060020b915080821461209557612095611db1565b5092915050565b60008160020b627fffff1981036120b5576120b5611db1565b60000392915050565b81516001600160a01b03168152610160810160208301516120ea60208401826001600160a01b03169052565b506040830151612101604084018262ffffff169052565b506060830151612116606084018260020b9052565b50608083015161212b608084018260020b9052565b5060a083015160a083015260c083015160c083015260e083015160e083015261010080840151818401525061012080840151612171828501826001600160a01b03169052565b50506101409283015191909201529056fea2646970667358221220b192e5a4afc0a2c92b22616f111bb333b601dd3f6c69bb61ab3e4ca4beea5a0d64736f6c63430008140033",
  "devdoc": {
    "errors": {
      "ERC20InsufficientAllowance(address,uint256,uint256)": [
        {
          "details": "Indicates a failure with the `spender`s `allowance`. Used in transfers.",
          "params": {
            "allowance": "Amount of tokens a `spender` is allowed to operate with.",
            "needed": "Minimum amount required to perform a transfer.",
            "spender": "Address that may be allowed to operate on tokens without being their owner."
          }
        }
      ],
      "ERC20InsufficientBalance(address,uint256,uint256)": [
        {
          "details": "Indicates an error related to the current `balance` of a `sender`. Used in transfers.",
          "params": {
            "balance": "Current balance for the interacting account.",
            "needed": "Minimum amount required to perform a transfer.",
            "sender": "Address whose tokens are being transferred."
          }
        }
      ],
      "ERC20InvalidApprover(address)": [
        {
          "details": "Indicates a failure with the `approver` of a token to be approved. Used in approvals.",
          "params": {
            "approver": "Address initiating an approval operation."
          }
        }
      ],
      "ERC20InvalidReceiver(address)": [
        {
          "details": "Indicates a failure with the token `receiver`. Used in transfers.",
          "params": {
            "receiver": "Address to which tokens are being transferred."
          }
        }
      ],
      "ERC20InvalidSender(address)": [
        {
          "details": "Indicates a failure with the token `sender`. Used in transfers.",
          "params": {
            "sender": "Address whose tokens are being transferred."
          }
        }
      ],
      "ERC20InvalidSpender(address)": [
        {
          "details": "Indicates a failure with the `spender` to be approved. Used in approvals.",
          "params": {
            "spender": "Address that may be allowed to operate on tokens without being their owner."
          }
        }
      ],
      "OwnableInvalidOwner(address)": [
        {
          "details": "The owner is not a valid owner account. (eg. `address(0)`)"
        }
      ],
      "OwnableUnauthorizedAccount(address)": [
        {
          "details": "The caller account is not authorized to perform an operation."
        }
      ],
      "ReentrancyGuardReentrantCall()": [
        {
          "details": "Unauthorized reentrant call."
        }
      ]
    },
    "events": {
      "Approval(address,address,uint256)": {
        "details": "Emitted when the allowance of a `spender` for an `owner` is set by a call to {approve}. `value` is the new allowance."
      },
      "Transfer(address,address,uint256)": {
        "details": "Emitted when `value` tokens are moved from one account (`from`) to another (`to`). Note that `value` may be zero."
      }
    },
    "kind": "dev",
    "methods": {
      "allowance(address,address)": {
        "details": "See {IERC20-allowance}."
      },
      "approve(address,uint256)": {
        "details": "See {IERC20-approve}. NOTE: If `value` is the maximum `uint256`, the allowance is not updated on `transferFrom`. This is semantically equivalent to an infinite approval. Requirements: - `spender` cannot be the zero address."
      },
      "balanceOf(address)": {
        "details": "See {IERC20-balanceOf}."
      },
      "decimals()": {
        "details": "Returns the number of decimals used to get its user representation. For example, if `decimals` equals `2`, a balance of `505` tokens should be displayed to a user as `5.05` (`505 / 10 ** 2`). Tokens usually opt for a value of 18, imitating the relationship between Ether and Wei. This is the default value returned by this function, unless it's overridden. NOTE: This information is only used for _display_ purposes: it in no way affects any of the arithmetic of the contract, including {IERC20-balanceOf} and {IERC20-transfer}."
      },
      "name()": {
        "details": "Returns the name of the token."
      },
      "owner()": {
        "details": "Returns the address of the current owner."
      },
      "renounceOwnership()": {
        "details": "Leaves the contract without owner. It will not be possible to call `onlyOwner` functions. Can only be called by the current owner. NOTE: Renouncing ownership will leave the contract without an owner, thereby disabling any functionality that is only available to the owner."
      },
      "symbol()": {
        "details": "Returns the symbol of the token, usually a shorter version of the name."
      },
      "totalSupply()": {
        "details": "See {IERC20-totalSupply}."
      },
      "transfer(address,uint256)": {
        "details": "See {IERC20-transfer}. Requirements: - `to` cannot be the zero address. - the caller must have a balance of at least `value`."
      },
      "transferFrom(address,address,uint256)": {
        "details": "See {IERC20-transferFrom}. Emits an {Approval} event indicating the updated allowance. This is not required by the EIP. See the note at the beginning of {ERC20}. NOTE: Does not update the allowance if the current allowance is the maximum `uint256`. Requirements: - `from` and `to` cannot be the zero address. - `from` must have a balance of at least `value`. - the caller must have allowance for ``from``'s tokens of at least `value`."
      },
      "transferOwnership(address)": {
        "details": "Transfers ownership of the contract to a new account (`newOwner`). Can only be called by the current owner."
      }
    },
    "version": 1
  },
  "userdoc": {
    "kind": "user",
    "methods": {},
    "version": 1
  },
  "storageLayout": {
    "storage": [
      {
        "astId": 307,
        "contract": "contracts/token.sol:Token",
        "label": "_balances",
        "offset": 0,
        "slot": "0",
        "type": "t_mapping(t_address,t_uint256)"
      },
      {
        "astId": 313,
        "contract": "contracts/token.sol:Token",
        "label": "_allowances",
        "offset": 0,
        "slot": "1",
        "type": "t_mapping(t_address,t_mapping(t_address,t_uint256))"
      },
      {
        "astId": 315,
        "contract": "contracts/token.sol:Token",
        "label": "_totalSupply",
        "offset": 0,
        "slot": "2",
        "type": "t_uint256"
      },
      {
        "astId": 317,
        "contract": "contracts/token.sol:Token",
        "label": "_name",
        "offset": 0,
        "slot": "3",
        "type": "t_string_storage"
      },
      {
        "astId": 319,
        "contract": "contracts/token.sol:Token",
        "label": "_symbol",
        "offset": 0,
        "slot": "4",
        "type": "t_string_storage"
      },
      {
        "astId": 8,
        "contract": "contracts/token.sol:Token",
        "label": "_owner",
        "offset": 0,
        "slot": "5",
        "type": "t_address"
      },
      {
        "astId": 1523,
        "contract": "contracts/token.sol:Token",
        "label": "_status",
        "offset": 0,
        "slot": "6",
        "type": "t_uint256"
      },
      {
        "astId": 2413,
        "contract": "contracts/token.sol:Token",
        "label": "liquidityProvisionThreshold",
        "offset": 0,
        "slot": "7",
        "type": "t_uint256"
      },
      {
        "astId": 2422,
        "contract": "contracts/token.sol:Token",
        "label": "isLiquidityProvisionLocked",
        "offset": 0,
        "slot": "8",
        "type": "t_bool"
      },
      {
        "astId": 2451,
        "contract": "contracts/token.sol:Token",
        "label": "weth",
        "offset": 1,
        "slot": "8",
        "type": "t_contract(IWETH)2240"
      },
      {
        "astId": 2453,
        "contract": "contracts/token.sol:Token",
        "label": "treasuryWallet",
        "offset": 0,
        "slot": "9",
        "type": "t_address"
      }
    ],
    "types": {
      "t_address": {
        "encoding": "inplace",
        "label": "address",
        "numberOfBytes": "20"
      },
      "t_bool": {
        "encoding": "inplace",
        "label": "bool",
        "numberOfBytes": "1"
      },
      "t_contract(IWETH)2240": {
        "encoding": "inplace",
        "label": "contract IWETH",
        "numberOfBytes": "20"
      },
      "t_mapping(t_address,t_mapping(t_address,t_uint256))": {
        "encoding": "mapping",
        "key": "t_address",
        "label": "mapping(address => mapping(address => uint256))",
        "numberOfBytes": "32",
        "value": "t_mapping(t_address,t_uint256)"
      },
      "t_mapping(t_address,t_uint256)": {
        "encoding": "mapping",
        "key": "t_address",
        "label": "mapping(address => uint256)",
        "numberOfBytes": "32",
        "value": "t_uint256"
      },
      "t_string_storage": {
        "encoding": "bytes",
        "label": "string",
        "numberOfBytes": "32"
      },
      "t_uint256": {
        "encoding": "inplace",
        "label": "uint256",
        "numberOfBytes": "32"
      }
    }
  }
}