{
  "address": "0x4dD5142a7Fd05bc99415D4B167B38d9D95C8E06c",
  "abi": [
    {
      "inputs": [
        {
          "internalType": "string",
          "name": "name_",
          "type": "string"
        },
        {
          "internalType": "string",
          "name": "symbol_",
          "type": "string"
        },
        {
          "internalType": "address payable",
          "name": "_dummyWETH",
          "type": "address"
        },
        {
          "internalType": "address",
          "name": "_uniswapV3Factory",
          "type": "address"
        },
        {
          "internalType": "address",
          "name": "_positionManager",
          "type": "address"
        },
        {
          "internalType": "address",
          "name": "_swapRouter",
          "type": "address"
        },
        {
          "internalType": "address",
          "name": "_unideployer",
          "type": "address"
        }
      ],
      "stateMutability": "nonpayable",
      "type": "constructor"
    },
    {
      "inputs": [
        {
          "internalType": "address",
          "name": "spender",
          "type": "address"
        },
        {
          "internalType": "uint256",
          "name": "allowance",
          "type": "uint256"
        },
        {
          "internalType": "uint256",
          "name": "needed",
          "type": "uint256"
        }
      ],
      "name": "ERC20InsufficientAllowance",
      "type": "error"
    },
    {
      "inputs": [
        {
          "internalType": "address",
          "name": "sender",
          "type": "address"
        },
        {
          "internalType": "uint256",
          "name": "balance",
          "type": "uint256"
        },
        {
          "internalType": "uint256",
          "name": "needed",
          "type": "uint256"
        }
      ],
      "name": "ERC20InsufficientBalance",
      "type": "error"
    },
    {
      "inputs": [
        {
          "internalType": "address",
          "name": "approver",
          "type": "address"
        }
      ],
      "name": "ERC20InvalidApprover",
      "type": "error"
    },
    {
      "inputs": [
        {
          "internalType": "address",
          "name": "receiver",
          "type": "address"
        }
      ],
      "name": "ERC20InvalidReceiver",
      "type": "error"
    },
    {
      "inputs": [
        {
          "internalType": "address",
          "name": "sender",
          "type": "address"
        }
      ],
      "name": "ERC20InvalidSender",
      "type": "error"
    },
    {
      "inputs": [
        {
          "internalType": "address",
          "name": "spender",
          "type": "address"
        }
      ],
      "name": "ERC20InvalidSpender",
      "type": "error"
    },
    {
      "inputs": [],
      "name": "InsufficientETHSent",
      "type": "error"
    },
    {
      "inputs": [],
      "name": "LiquidityProvisionLocked",
      "type": "error"
    },
    {
      "inputs": [],
      "name": "MintingExceedsThreshold",
      "type": "error"
    },
    {
      "inputs": [
        {
          "internalType": "address",
          "name": "owner",
          "type": "address"
        }
      ],
      "name": "OwnableInvalidOwner",
      "type": "error"
    },
    {
      "inputs": [
        {
          "internalType": "address",
          "name": "account",
          "type": "address"
        }
      ],
      "name": "OwnableUnauthorizedAccount",
      "type": "error"
    },
    {
      "inputs": [],
      "name": "ReentrancyGuardReentrantCall",
      "type": "error"
    },
    {
      "inputs": [],
      "name": "UnauthorizedAccess",
      "type": "error"
    },
    {
      "inputs": [],
      "name": "ZeroAddressUsed",
      "type": "error"
    },
    {
      "anonymous": false,
      "inputs": [
        {
          "indexed": true,
          "internalType": "address",
          "name": "owner",
          "type": "address"
        },
        {
          "indexed": true,
          "internalType": "address",
          "name": "spender",
          "type": "address"
        },
        {
          "indexed": false,
          "internalType": "uint256",
          "name": "value",
          "type": "uint256"
        }
      ],
      "name": "Approval",
      "type": "event"
    },
    {
      "anonymous": false,
      "inputs": [
        {
          "indexed": false,
          "internalType": "uint256",
          "name": "ethAmount",
          "type": "uint256"
        },
        {
          "indexed": false,
          "internalType": "uint256",
          "name": "tokenAmount",
          "type": "uint256"
        },
        {
          "indexed": false,
          "internalType": "uint256",
          "name": "liquidity",
          "type": "uint256"
        }
      ],
      "name": "LiquidityAdded",
      "type": "event"
    },
    {
      "anonymous": false,
      "inputs": [
        {
          "indexed": true,
          "internalType": "address",
          "name": "previousOwner",
          "type": "address"
        },
        {
          "indexed": true,
          "internalType": "address",
          "name": "newOwner",
          "type": "address"
        }
      ],
      "name": "OwnershipTransferred",
      "type": "event"
    },
    {
      "anonymous": false,
      "inputs": [
        {
          "indexed": true,
          "internalType": "address",
          "name": "from",
          "type": "address"
        },
        {
          "indexed": false,
          "internalType": "uint256",
          "name": "amount",
          "type": "uint256"
        }
      ],
      "name": "TokenBurned",
      "type": "event"
    },
    {
      "anonymous": false,
      "inputs": [
        {
          "indexed": true,
          "internalType": "address",
          "name": "to",
          "type": "address"
        },
        {
          "indexed": false,
          "internalType": "uint256",
          "name": "amount",
          "type": "uint256"
        }
      ],
      "name": "TokenMinted",
      "type": "event"
    },
    {
      "anonymous": false,
      "inputs": [
        {
          "indexed": true,
          "internalType": "address",
          "name": "from",
          "type": "address"
        },
        {
          "indexed": true,
          "internalType": "address",
          "name": "to",
          "type": "address"
        },
        {
          "indexed": false,
          "internalType": "uint256",
          "name": "value",
          "type": "uint256"
        }
      ],
      "name": "Transfer",
      "type": "event"
    },
    {
      "inputs": [],
      "name": "_wrapETH",
      "outputs": [],
      "stateMutability": "payable",
      "type": "function"
    },
    {
      "inputs": [
        {
          "internalType": "address",
          "name": "owner",
          "type": "address"
        },
        {
          "internalType": "address",
          "name": "spender",
          "type": "address"
        }
      ],
      "name": "allowance",
      "outputs": [
        {
          "internalType": "uint256",
          "name": "",
          "type": "uint256"
        }
      ],
      "stateMutability": "view",
      "type": "function"
    },
    {
      "inputs": [
        {
          "internalType": "address",
          "name": "spender",
          "type": "address"
        },
        {
          "internalType": "uint256",
          "name": "value",
          "type": "uint256"
        }
      ],
      "name": "approve",
      "outputs": [
        {
          "internalType": "bool",
          "name": "",
          "type": "bool"
        }
      ],
      "stateMutability": "nonpayable",
      "type": "function"
    },
    {
      "inputs": [],
      "name": "approveContract",
      "outputs": [],
      "stateMutability": "nonpayable",
      "type": "function"
    },
    {
      "inputs": [
        {
          "internalType": "address",
          "name": "account",
          "type": "address"
        }
      ],
      "name": "balanceOf",
      "outputs": [
        {
          "internalType": "uint256",
          "name": "",
          "type": "uint256"
        }
      ],
      "stateMutability": "view",
      "type": "function"
    },
    {
      "inputs": [
        {
          "internalType": "uint256",
          "name": "amount",
          "type": "uint256"
        }
      ],
      "name": "burn",
      "outputs": [],
      "stateMutability": "nonpayable",
      "type": "function"
    },
    {
      "inputs": [
        {
          "internalType": "uint256",
          "name": "amount",
          "type": "uint256"
        }
      ],
      "name": "calculateBurnProceeds",
      "outputs": [
        {
          "internalType": "uint256",
          "name": "",
          "type": "uint256"
        }
      ],
      "stateMutability": "view",
      "type": "function"
    },
    {
      "inputs": [
        {
          "internalType": "uint256",
          "name": "currentSupply",
          "type": "uint256"
        },
        {
          "internalType": "uint256",
          "name": "mintAmount",
          "type": "uint256"
        }
      ],
      "name": "calculateMintCost",
      "outputs": [
        {
          "internalType": "uint256",
          "name": "",
          "type": "uint256"
        }
      ],
      "stateMutability": "pure",
      "type": "function"
    },
    {
      "inputs": [
        {
          "internalType": "uint256",
          "name": "tokenId",
          "type": "uint256"
        }
      ],
      "name": "collectFees",
      "outputs": [],
      "stateMutability": "nonpayable",
      "type": "function"
    },
    {
      "inputs": [],
      "name": "decimals",
      "outputs": [
        {
          "internalType": "uint8",
          "name": "",
          "type": "uint8"
        }
      ],
      "stateMutability": "view",
      "type": "function"
    },
    {
      "inputs": [],
      "name": "isLiquidityProvisionLocked",
      "outputs": [
        {
          "internalType": "bool",
          "name": "",
          "type": "bool"
        }
      ],
      "stateMutability": "view",
      "type": "function"
    },
    {
      "inputs": [],
      "name": "liquidityProvisionThreshold",
      "outputs": [
        {
          "internalType": "uint256",
          "name": "",
          "type": "uint256"
        }
      ],
      "stateMutability": "view",
      "type": "function"
    },
    {
      "inputs": [
        {
          "internalType": "uint256",
          "name": "amount",
          "type": "uint256"
        }
      ],
      "name": "mint",
      "outputs": [],
      "stateMutability": "payable",
      "type": "function"
    },
    {
      "inputs": [],
      "name": "name",
      "outputs": [
        {
          "internalType": "string",
          "name": "",
          "type": "string"
        }
      ],
      "stateMutability": "view",
      "type": "function"
    },
    {
      "inputs": [
        {
          "internalType": "address",
          "name": "",
          "type": "address"
        },
        {
          "internalType": "address",
          "name": "",
          "type": "address"
        },
        {
          "internalType": "uint256",
          "name": "",
          "type": "uint256"
        },
        {
          "internalType": "bytes",
          "name": "",
          "type": "bytes"
        }
      ],
      "name": "onERC721Received",
      "outputs": [
        {
          "internalType": "bytes4",
          "name": "",
          "type": "bytes4"
        }
      ],
      "stateMutability": "pure",
      "type": "function"
    },
    {
      "inputs": [],
      "name": "owner",
      "outputs": [
        {
          "internalType": "address",
          "name": "",
          "type": "address"
        }
      ],
      "stateMutability": "view",
      "type": "function"
    },
    {
      "inputs": [],
      "name": "positionManager",
      "outputs": [
        {
          "internalType": "contract INonfungiblePositionManager",
          "name": "",
          "type": "address"
        }
      ],
      "stateMutability": "view",
      "type": "function"
    },
    {
      "inputs": [],
      "name": "renounceOwnership",
      "outputs": [],
      "stateMutability": "nonpayable",
      "type": "function"
    },
    {
      "inputs": [],
      "name": "sendIT",
      "outputs": [],
      "stateMutability": "nonpayable",
      "type": "function"
    },
    {
      "inputs": [
        {
          "internalType": "address",
          "name": "_treasuryWallet",
          "type": "address"
        }
      ],
      "name": "setTreasuryWallet",
      "outputs": [],
      "stateMutability": "nonpayable",
      "type": "function"
    },
    {
      "inputs": [],
      "name": "swapRouter",
      "outputs": [
        {
          "internalType": "contract ISwapRouter",
          "name": "",
          "type": "address"
        }
      ],
      "stateMutability": "view",
      "type": "function"
    },
    {
      "inputs": [],
      "name": "symbol",
      "outputs": [
        {
          "internalType": "string",
          "name": "",
          "type": "string"
        }
      ],
      "stateMutability": "view",
      "type": "function"
    },
    {
      "inputs": [],
      "name": "totalSupply",
      "outputs": [
        {
          "internalType": "uint256",
          "name": "",
          "type": "uint256"
        }
      ],
      "stateMutability": "view",
      "type": "function"
    },
    {
      "inputs": [
        {
          "internalType": "address",
          "name": "to",
          "type": "address"
        },
        {
          "internalType": "uint256",
          "name": "value",
          "type": "uint256"
        }
      ],
      "name": "transfer",
      "outputs": [
        {
          "internalType": "bool",
          "name": "",
          "type": "bool"
        }
      ],
      "stateMutability": "nonpayable",
      "type": "function"
    },
    {
      "inputs": [
        {
          "internalType": "address",
          "name": "from",
          "type": "address"
        },
        {
          "internalType": "address",
          "name": "to",
          "type": "address"
        },
        {
          "internalType": "uint256",
          "name": "value",
          "type": "uint256"
        }
      ],
      "name": "transferFrom",
      "outputs": [
        {
          "internalType": "bool",
          "name": "",
          "type": "bool"
        }
      ],
      "stateMutability": "nonpayable",
      "type": "function"
    },
    {
      "inputs": [
        {
          "internalType": "address",
          "name": "newOwner",
          "type": "address"
        }
      ],
      "name": "transferOwnership",
      "outputs": [],
      "stateMutability": "nonpayable",
      "type": "function"
    },
    {
      "inputs": [],
      "name": "treasuryWallet",
      "outputs": [
        {
          "internalType": "address",
          "name": "",
          "type": "address"
        }
      ],
      "stateMutability": "view",
      "type": "function"
    },
    {
      "inputs": [],
      "name": "unideployer",
      "outputs": [
        {
          "internalType": "contract IUniswapV3PoolDeployer",
          "name": "",
          "type": "address"
        }
      ],
      "stateMutability": "view",
      "type": "function"
    },
    {
      "inputs": [],
      "name": "uniswapV3Factory",
      "outputs": [
        {
          "internalType": "contract IUniswapV3Factory",
          "name": "",
          "type": "address"
        }
      ],
      "stateMutability": "view",
      "type": "function"
    },
    {
      "inputs": [],
      "name": "weth",
      "outputs": [
        {
          "internalType": "contract IWETH",
          "name": "",
          "type": "address"
        }
      ],
      "stateMutability": "view",
      "type": "function"
    }
  ],
  "transactionHash": "0x867c742ecf987c6017bd4f96636777103f200de9974850cc7226c0d573346de6",
  "args": [
    "FARTBEANS2",
    "BEANS2",
    "0x4200000000000000000000000000000000000006",
    "0x4752ba5DBc23f44D87826276BF6Fd6b1C372aD24",
    "0x27F971cb582BF9E50F397e4d29a5C7A34f11faA2",
    "0x94cC0AaC535CCDB3C01d6787D6413C739ae12bc4",
    "0xCf4ccA8e4211CA2779E7916ffFb33f8AD20dE283"
  ],
  "numDeployments": 1,
  "solcInputHash": "7585dfb21485fdebbe34f5e96463121d",
  "bytecode": "0x6101006040526706f05b59d3b200006007556008805460ff191690553480156200002857600080fd5b5060405162001d4d38038062001d4d8339810160408190526200004b9162000459565b33878760036200005c8382620005bf565b5060046200006b8282620005bf565b5050506001600160a01b0381166200009d57604051631e4fbdf760e01b81526000600482015260240160405180910390fd5b620000a8816200010f565b5060016006556001600160a01b0384811660805283811660c05282811660a05260088054610100600160a81b0319166101008884168102919091179182905583831660e05262000102923092919091041661271062000161565b50505050505050620006b2565b600580546001600160a01b038381166001600160a01b0319831681179093556040519116919082907f8be0079c531659141344cd1fd0a4f28419497f9722a3daafe3b4186f6b6457e090600090a35050565b608051604051630b4c774160e11b81526001600160a01b038581166004830152848116602483015262ffffff841660448301526c0100000000000000000000000092600092911690631698ee8290606401602060405180830381865afa158015620001d0573d6000803e3d6000fd5b505050506040513d601f19601f82011682018060405250810190620001f691906200068b565b90506001600160a01b038116620003745760805160405163a167129560e01b81526001600160a01b038781166004830152868116602483015262ffffff861660448301529091169063a1671295906064016020604051808303816000875af115801562000267573d6000803e3d6000fd5b505050506040513d601f19601f820116820180604052508101906200028d91906200068b565b50608051604051630b4c774160e11b81526001600160a01b038781166004830152868116602483015262ffffff8616604483015290911690631698ee8290606401602060405180830381865afa158015620002ec573d6000803e3d6000fd5b505050506040513d601f19601f820116820180604052508101906200031291906200068b565b60405163f637731d60e01b81526001600160a01b0384811660048301529192509082169063f637731d90602401600060405180830381600087803b1580156200035a57600080fd5b505af11580156200036f573d6000803e3d6000fd5b505050505b5050505050565b634e487b7160e01b600052604160045260246000fd5b600082601f830112620003a357600080fd5b81516001600160401b0380821115620003c057620003c06200037b565b604051601f8301601f19908116603f01168101908282118183101715620003eb57620003eb6200037b565b816040528381526020925086838588010111156200040857600080fd5b600091505b838210156200042c57858201830151818301840152908201906200040d565b600093810190920192909252949350505050565b6001600160a01b03811681146200045657600080fd5b50565b600080600080600080600060e0888a0312156200047557600080fd5b87516001600160401b03808211156200048d57600080fd5b6200049b8b838c0162000391565b985060208a0151915080821115620004b257600080fd5b50620004c18a828b0162000391565b9650506040880151620004d48162000440565b6060890151909550620004e78162000440565b6080890151909450620004fa8162000440565b60a08901519093506200050d8162000440565b60c0890151909250620005208162000440565b8091505092959891949750929550565b600181811c908216806200054557607f821691505b6020821081036200056657634e487b7160e01b600052602260045260246000fd5b50919050565b601f821115620005ba57600081815260208120601f850160051c81016020861015620005955750805b601f850160051c820191505b81811015620005b657828155600101620005a1565b5050505b505050565b81516001600160401b03811115620005db57620005db6200037b565b620005f381620005ec845462000530565b846200056c565b602080601f8311600181146200062b5760008415620006125750858301515b600019600386901b1c1916600185901b178555620005b6565b600085815260208120601f198616915b828110156200065c578886015182559484019460019091019084016200063b565b50858210156200067b5787850151600019600388901b60f8161c191681555b5050505050600190811b01905550565b6000602082840312156200069e57600080fd5b8151620006ab8162000440565b9392505050565b60805160a05160c05160e05161164562000708600039600081816103d2015281816107d90152818161087d01526109550152600081816104590152610dbf0152600061058d0152600061038901526116456000f3fe6080604052600436106101cd5760003560e01c806370a08231116100f7578063a0712d6811610095578063b17acdcd11610064578063b17acdcd1461055b578063c31c9c071461057b578063dd62ed3e146105af578063f2fde38b146105f557600080fd5b8063a0712d68146104e8578063a145288f146104fb578063a8602fea1461051b578063a9059cbb1461053b57600080fd5b80637b3a5681116100d15780637b3a56811461047b5780638160b38d146104955780638da5cb5b146104b557806395d89b41146104d357600080fd5b806370a08231146103fc578063715018a614610432578063791b98bc1461044757600080fd5b80633fc8cef31161016f5780635b5491821161013e5780635b549182146103775780635e813a28146103ab57806369103180146103c05780636d2e7c69146103f457600080fd5b80633fc8cef3146102e357806342966c681461032057806343d00d04146103425780634626402b1461035757600080fd5b806318160ddd116101ab57806318160ddd1461027257806323b872dd14610291578063313ce567146102b157806333527eac146102cd57600080fd5b806306fdde03146101d2578063095ea7b3146101fd578063150b7a021461022d575b600080fd5b3480156101de57600080fd5b506101e7610615565b6040516101f491906112dc565b60405180910390f35b34801561020957600080fd5b5061021d610218366004611346565b6106a7565b60405190151581526020016101f4565b34801561023957600080fd5b50610259610248366004611370565b630a85bd0160e11b95945050505050565b6040516001600160e01b031990911681526020016101f4565b34801561027e57600080fd5b506002545b6040519081526020016101f4565b34801561029d57600080fd5b5061021d6102ac36600461140b565b6106c1565b3480156102bd57600080fd5b50604051601281526020016101f4565b3480156102d957600080fd5b5061028360075481565b3480156102ef57600080fd5b506008546103089061010090046001600160a01b031681565b6040516001600160a01b0390911681526020016101f4565b34801561032c57600080fd5b5061034061033b366004611447565b6106e5565b005b34801561034e57600080fd5b506103406107ba565b34801561036357600080fd5b50600954610308906001600160a01b031681565b34801561038357600080fd5b506103087f000000000000000000000000000000000000000000000000000000000000000081565b3480156103b757600080fd5b5061034061090c565b3480156103cc57600080fd5b506103087f000000000000000000000000000000000000000000000000000000000000000081565b6103406109c8565b34801561040857600080fd5b50610283610417366004611460565b6001600160a01b031660009081526020819052604090205490565b34801561043e57600080fd5b50610340610ac9565b34801561045357600080fd5b506103087f000000000000000000000000000000000000000000000000000000000000000081565b34801561048757600080fd5b5060085461021d9060ff1681565b3480156104a157600080fd5b506102836104b036600461147b565b610add565b3480156104c157600080fd5b506005546001600160a01b0316610308565b3480156104df57600080fd5b506101e7610b0b565b6103406104f6366004611447565b610b1a565b34801561050757600080fd5b50610283610516366004611447565b610c7d565b34801561052757600080fd5b50610340610536366004611460565b610cfc565b34801561054757600080fd5b5061021d610556366004611346565b610d4d565b34801561056757600080fd5b50610340610576366004611447565b610d5b565b34801561058757600080fd5b506103087f000000000000000000000000000000000000000000000000000000000000000081565b3480156105bb57600080fd5b506102836105ca36600461149d565b6001600160a01b03918216600090815260016020908152604080832093909416825291909152205490565b34801561060157600080fd5b50610340610610366004611460565b610e2b565b606060038054610624906114d0565b80601f0160208091040260200160405190810160405280929190818152602001828054610650906114d0565b801561069d5780601f106106725761010080835404028352916020019161069d565b820191906000526020600020905b81548152906001019060200180831161068057829003601f168201915b5050505050905090565b6000336106b5818585610e66565b60019150505b92915050565b6000336106cf858285610e78565b6106da858585610ef0565b506001949350505050565b6106ed610f4f565b60085460ff161561071157604051633a0d72d160e21b815260040160405180910390fd5b600061071c82610c7d565b90504781111561073f5760405163311c9fd160e01b815260040160405180910390fd5b6107493383610f79565b604051339082156108fc029083906000818181858888f19350505050158015610776573d6000803e3d6000fd5b5060405182815233907f1af5163f80e79b5e554f61e1d052084d3a3fe1166e42a265798c4e2ddce8ffa29060200160405180910390a2506107b76001600655565b50565b6107c2610faf565b60405163095ea7b360e01b81526001600160a01b037f00000000000000000000000000000000000000000000000000000000000000001660048201526f0785ee10d5da46d900f436a0000000006024820152309063095ea7b3906044016020604051808303816000875af115801561083e573d6000803e3d6000fd5b505050506040513d601f19601f82011682018060405250810190610862919061150a565b5060085460405163095ea7b360e01b81526001600160a01b037f0000000000000000000000000000000000000000000000000000000000000000811660048301526c0c9f2c9cd04674edea4000000060248301526101009092049091169063095ea7b3906044016020604051808303816000875af11580156108e8573d6000803e3d6000fd5b505050506040513d601f19601f820116820180604052508101906107b7919061150a565b6008546040516326e0611560e21b81523060048201526101009091046001600160a01b039081166024830152670de0b6b3a7640000604483015266038d7ea4c6800060648301527f00000000000000000000000000000000000000000000000000000000000000001690639b818454906084016080604051808303816000875af115801561099e573d6000803e3d6000fd5b505050506040513d601f19601f820116820180604052508101906109c2919061152c565b50505050565b60085461010090046001600160a01b031680610a225760405162461bcd60e51b8152602060048201526014602482015273496e76616c69642057455448206164647265737360601b60448201526064015b60405180910390fd5b6000816001600160a01b03164760405160006040518083038185875af1925050503d8060008114610a6f576040519150601f19603f3d011682016040523d82523d6000602084013e610a74565b606091505b5050905080610ac55760405162461bcd60e51b815260206004820152601d60248201527f45544820746f205745544820636f6e76657273696f6e206661696c65640000006044820152606401610a19565b5050565b610ad1610faf565b610adb6000610fdc565b565b6000610ae88361102e565b610afa610af5848661158c565b61102e565b610b04919061159f565b9392505050565b606060048054610624906114d0565b60085460ff1615610b3e57604051633a0d72d160e21b815260040160405180910390fd5b6008805460ff191660011790556000610b5f610b5960025490565b83610add565b905080341015610ba95760405162461bcd60e51b8152602060048201526015602482015274125b9cdd59999a58da595b9d08115512081cd95b9d605a1b6044820152606401610a19565b60006064610bb884600f6115b2565b610bc291906115c9565b9050610bce30826110a7565b6000610bda828561159f565b9050610be633826110a7565b82341115610c2657336108fc610bfc853461159f565b6040518115909202916000818181858888f19350505050158015610c24573d6000803e3d6000fd5b505b600754471115610c3857610c3861090c565b60405184815233907fb9144c96c86541f6fa89c9f2f02495cccf4b08cd6643e26d34ee00aa586558a89060200160405180910390a250506008805460ff191690555050565b600080610c8960025490565b905080831115610ce65760405162461bcd60e51b815260206004820152602260248201527f4275726e20616d6f756e7420657863656564732063757272656e7420737570706044820152616c7960f01b6064820152608401610a19565b610cf3610af5848361159f565b610afa8261102e565b610d04610faf565b6001600160a01b038116610d2b57604051635d9de06f60e01b815260040160405180910390fd5b600980546001600160a01b0319166001600160a01b0392909216919091179055565b6000336106b5818585610ef0565b6040805160808101825282815233602082019081526001600160801b0382840181815260608401828152945163fc6f786560e01b81528451600482015292516001600160a01b039081166024850152905182166044840152935116606482015290917f0000000000000000000000000000000000000000000000000000000000000000169063fc6f78659060840160408051808303816000875af1158015610e07573d6000803e3d6000fd5b505050506040513d601f19601f820116820180604052508101906109c291906115eb565b610e33610faf565b6001600160a01b038116610e5d57604051631e4fbdf760e01b815260006004820152602401610a19565b6107b781610fdc565b610e7383838360016110dd565b505050565b6001600160a01b0383811660009081526001602090815260408083209386168352929052205460001981146109c25781811015610ee157604051637dc7a0d960e11b81526001600160a01b03841660048201526024810182905260448101839052606401610a19565b6109c2848484840360006110dd565b6001600160a01b038316610f1a57604051634b637e8f60e11b815260006004820152602401610a19565b6001600160a01b038216610f445760405163ec442f0560e01b815260006004820152602401610a19565b610e738383836111b2565b600260065403610f7257604051633ee5aeb560e01b815260040160405180910390fd5b6002600655565b6001600160a01b038216610fa357604051634b637e8f60e11b815260006004820152602401610a19565b610ac5826000836111b2565b6005546001600160a01b03163314610adb5760405163118cdaa760e01b8152336004820152602401610a19565b600580546001600160a01b038381166001600160a01b0319831681179093556040519116919082907f8be0079c531659141344cd1fd0a4f28419497f9722a3daafe3b4186f6b6457e090600090a35050565b60006006611044670de0b6b3a7640000846115c9565b61104f9060026115b2565b61105a90600161158c565b61106c670de0b6b3a7640000856115c9565b61107790600161158c565b611089670de0b6b3a7640000866115c9565b61109391906115b2565b61109d91906115b2565b6106bb91906115c9565b6001600160a01b0382166110d15760405163ec442f0560e01b815260006004820152602401610a19565b610ac5600083836111b2565b6001600160a01b0384166111075760405163e602df0560e01b815260006004820152602401610a19565b6001600160a01b03831661113157604051634a1406b160e11b815260006004820152602401610a19565b6001600160a01b03808516600090815260016020908152604080832093871683529290522082905580156109c257826001600160a01b0316846001600160a01b03167f8c5be1e5ebec7d5bd14f71427d1e84f3dd0314c0f7b2291e5b200ac8c7c3b925846040516111a491815260200190565b60405180910390a350505050565b6001600160a01b0383166111dd5780600260008282546111d2919061158c565b9091555061124f9050565b6001600160a01b038316600090815260208190526040902054818110156112305760405163391434e360e21b81526001600160a01b03851660048201526024810182905260448101839052606401610a19565b6001600160a01b03841660009081526020819052604090209082900390555b6001600160a01b03821661126b5760028054829003905561128a565b6001600160a01b03821660009081526020819052604090208054820190555b816001600160a01b0316836001600160a01b03167fddf252ad1be2c89b69c2b068fc378daa952ba7f163c4a11628f55a4df523b3ef836040516112cf91815260200190565b60405180910390a3505050565b600060208083528351808285015260005b81811015611309578581018301518582016040015282016112ed565b506000604082860101526040601f19601f8301168501019250505092915050565b80356001600160a01b038116811461134157600080fd5b919050565b6000806040838503121561135957600080fd5b6113628361132a565b946020939093013593505050565b60008060008060006080868803121561138857600080fd5b6113918661132a565b945061139f6020870161132a565b935060408601359250606086013567ffffffffffffffff808211156113c357600080fd5b818801915088601f8301126113d757600080fd5b8135818111156113e657600080fd5b8960208285010111156113f857600080fd5b9699959850939650602001949392505050565b60008060006060848603121561142057600080fd5b6114298461132a565b92506114376020850161132a565b9150604084013590509250925092565b60006020828403121561145957600080fd5b5035919050565b60006020828403121561147257600080fd5b610b048261132a565b6000806040838503121561148e57600080fd5b50508035926020909101359150565b600080604083850312156114b057600080fd5b6114b98361132a565b91506114c76020840161132a565b90509250929050565b600181811c908216806114e457607f821691505b60208210810361150457634e487b7160e01b600052602260045260246000fd5b50919050565b60006020828403121561151c57600080fd5b81518015158114610b0457600080fd5b6000806000806080858703121561154257600080fd5b8451935060208501516001600160801b038116811461156057600080fd5b6040860151606090960151949790965092505050565b634e487b7160e01b600052601160045260246000fd5b808201808211156106bb576106bb611576565b818103818111156106bb576106bb611576565b80820281158282048414176106bb576106bb611576565b6000826115e657634e487b7160e01b600052601260045260246000fd5b500490565b600080604083850312156115fe57600080fd5b50508051602090910151909290915056fea2646970667358221220c708421770e838285887467a3d49e194798096e0e010cb9d173471389301dc7064736f6c63430008140033",
  "devdoc": {
    "errors": {
      "ERC20InsufficientAllowance(address,uint256,uint256)": [
        {
          "details": "Indicates a failure with the `spender`s `allowance`. Used in transfers.",
          "params": {
            "allowance": "Amount of tokens a `spender` is allowed to operate with.",
            "needed": "Minimum amount required to perform a transfer.",
            "spender": "Address that may be allowed to operate on tokens without being their owner."
          }
        }
      ],
      "ERC20InsufficientBalance(address,uint256,uint256)": [
        {
          "details": "Indicates an error related to the current `balance` of a `sender`. Used in transfers.",
          "params": {
            "balance": "Current balance for the interacting account.",
            "needed": "Minimum amount required to perform a transfer.",
            "sender": "Address whose tokens are being transferred."
          }
        }
      ],
      "ERC20InvalidApprover(address)": [
        {
          "details": "Indicates a failure with the `approver` of a token to be approved. Used in approvals.",
          "params": {
            "approver": "Address initiating an approval operation."
          }
        }
      ],
      "ERC20InvalidReceiver(address)": [
        {
          "details": "Indicates a failure with the token `receiver`. Used in transfers.",
          "params": {
            "receiver": "Address to which tokens are being transferred."
          }
        }
      ],
      "ERC20InvalidSender(address)": [
        {
          "details": "Indicates a failure with the token `sender`. Used in transfers.",
          "params": {
            "sender": "Address whose tokens are being transferred."
          }
        }
      ],
      "ERC20InvalidSpender(address)": [
        {
          "details": "Indicates a failure with the `spender` to be approved. Used in approvals.",
          "params": {
            "spender": "Address that may be allowed to operate on tokens without being their owner."
          }
        }
      ],
      "OwnableInvalidOwner(address)": [
        {
          "details": "The owner is not a valid owner account. (eg. `address(0)`)"
        }
      ],
      "OwnableUnauthorizedAccount(address)": [
        {
          "details": "The caller account is not authorized to perform an operation."
        }
      ],
      "ReentrancyGuardReentrantCall()": [
        {
          "details": "Unauthorized reentrant call."
        }
      ]
    },
    "events": {
      "Approval(address,address,uint256)": {
        "details": "Emitted when the allowance of a `spender` for an `owner` is set by a call to {approve}. `value` is the new allowance."
      },
      "Transfer(address,address,uint256)": {
        "details": "Emitted when `value` tokens are moved from one account (`from`) to another (`to`). Note that `value` may be zero."
      }
    },
    "kind": "dev",
    "methods": {
      "allowance(address,address)": {
        "details": "See {IERC20-allowance}."
      },
      "approve(address,uint256)": {
        "details": "See {IERC20-approve}. NOTE: If `value` is the maximum `uint256`, the allowance is not updated on `transferFrom`. This is semantically equivalent to an infinite approval. Requirements: - `spender` cannot be the zero address."
      },
      "balanceOf(address)": {
        "details": "See {IERC20-balanceOf}."
      },
      "decimals()": {
        "details": "Returns the number of decimals used to get its user representation. For example, if `decimals` equals `2`, a balance of `505` tokens should be displayed to a user as `5.05` (`505 / 10 ** 2`). Tokens usually opt for a value of 18, imitating the relationship between Ether and Wei. This is the default value returned by this function, unless it's overridden. NOTE: This information is only used for _display_ purposes: it in no way affects any of the arithmetic of the contract, including {IERC20-balanceOf} and {IERC20-transfer}."
      },
      "name()": {
        "details": "Returns the name of the token."
      },
      "owner()": {
        "details": "Returns the address of the current owner."
      },
      "renounceOwnership()": {
        "details": "Leaves the contract without owner. It will not be possible to call `onlyOwner` functions. Can only be called by the current owner. NOTE: Renouncing ownership will leave the contract without an owner, thereby disabling any functionality that is only available to the owner."
      },
      "symbol()": {
        "details": "Returns the symbol of the token, usually a shorter version of the name."
      },
      "totalSupply()": {
        "details": "See {IERC20-totalSupply}."
      },
      "transfer(address,uint256)": {
        "details": "See {IERC20-transfer}. Requirements: - `to` cannot be the zero address. - the caller must have a balance of at least `value`."
      },
      "transferFrom(address,address,uint256)": {
        "details": "See {IERC20-transferFrom}. Emits an {Approval} event indicating the updated allowance. This is not required by the EIP. See the note at the beginning of {ERC20}. NOTE: Does not update the allowance if the current allowance is the maximum `uint256`. Requirements: - `from` and `to` cannot be the zero address. - `from` must have a balance of at least `value`. - the caller must have allowance for ``from``'s tokens of at least `value`."
      },
      "transferOwnership(address)": {
        "details": "Transfers ownership of the contract to a new account (`newOwner`). Can only be called by the current owner."
      }
    },
    "version": 1
  },
  "userdoc": {
    "kind": "user",
    "methods": {},
    "version": 1
  },
  "storageLayout": {
    "storage": [
      {
        "astId": 307,
        "contract": "contracts/token.sol:Token",
        "label": "_balances",
        "offset": 0,
        "slot": "0",
        "type": "t_mapping(t_address,t_uint256)"
      },
      {
        "astId": 313,
        "contract": "contracts/token.sol:Token",
        "label": "_allowances",
        "offset": 0,
        "slot": "1",
        "type": "t_mapping(t_address,t_mapping(t_address,t_uint256))"
      },
      {
        "astId": 315,
        "contract": "contracts/token.sol:Token",
        "label": "_totalSupply",
        "offset": 0,
        "slot": "2",
        "type": "t_uint256"
      },
      {
        "astId": 317,
        "contract": "contracts/token.sol:Token",
        "label": "_name",
        "offset": 0,
        "slot": "3",
        "type": "t_string_storage"
      },
      {
        "astId": 319,
        "contract": "contracts/token.sol:Token",
        "label": "_symbol",
        "offset": 0,
        "slot": "4",
        "type": "t_string_storage"
      },
      {
        "astId": 8,
        "contract": "contracts/token.sol:Token",
        "label": "_owner",
        "offset": 0,
        "slot": "5",
        "type": "t_address"
      },
      {
        "astId": 1700,
        "contract": "contracts/token.sol:Token",
        "label": "_status",
        "offset": 0,
        "slot": "6",
        "type": "t_uint256"
      },
      {
        "astId": 2930,
        "contract": "contracts/token.sol:Token",
        "label": "liquidityProvisionThreshold",
        "offset": 0,
        "slot": "7",
        "type": "t_uint256"
      },
      {
        "astId": 2933,
        "contract": "contracts/token.sol:Token",
        "label": "isLiquidityProvisionLocked",
        "offset": 0,
        "slot": "8",
        "type": "t_bool"
      },
      {
        "astId": 2962,
        "contract": "contracts/token.sol:Token",
        "label": "weth",
        "offset": 1,
        "slot": "8",
        "type": "t_contract(IWETH)2854"
      },
      {
        "astId": 2964,
        "contract": "contracts/token.sol:Token",
        "label": "treasuryWallet",
        "offset": 0,
        "slot": "9",
        "type": "t_address"
      }
    ],
    "types": {
      "t_address": {
        "encoding": "inplace",
        "label": "address",
        "numberOfBytes": "20"
      },
      "t_bool": {
        "encoding": "inplace",
        "label": "bool",
        "numberOfBytes": "1"
      },
      "t_contract(IWETH)2854": {
        "encoding": "inplace",
        "label": "contract IWETH",
        "numberOfBytes": "20"
      },
      "t_mapping(t_address,t_mapping(t_address,t_uint256))": {
        "encoding": "mapping",
        "key": "t_address",
        "label": "mapping(address => mapping(address => uint256))",
        "numberOfBytes": "32",
        "value": "t_mapping(t_address,t_uint256)"
      },
      "t_mapping(t_address,t_uint256)": {
        "encoding": "mapping",
        "key": "t_address",
        "label": "mapping(address => uint256)",
        "numberOfBytes": "32",
        "value": "t_uint256"
      },
      "t_string_storage": {
        "encoding": "bytes",
        "label": "string",
        "numberOfBytes": "32"
      },
      "t_uint256": {
        "encoding": "inplace",
        "label": "uint256",
        "numberOfBytes": "32"
      }
    }
  }
}