{
  "address": "0xB5DF455362DbC29A293385125924e337046c788D",
  "abi": [
    {
      "inputs": [
        {
          "internalType": "string",
          "name": "name_",
          "type": "string"
        },
        {
          "internalType": "string",
          "name": "symbol_",
          "type": "string"
        },
        {
          "internalType": "address payable",
          "name": "_dummyWETH",
          "type": "address"
        },
        {
          "internalType": "address",
          "name": "_uniswapV3Factory",
          "type": "address"
        },
        {
          "internalType": "address",
          "name": "_positionManager",
          "type": "address"
        },
        {
          "internalType": "address",
          "name": "_treasuryWallet",
          "type": "address"
        }
      ],
      "stateMutability": "nonpayable",
      "type": "constructor"
    },
    {
      "inputs": [
        {
          "internalType": "address",
          "name": "spender",
          "type": "address"
        },
        {
          "internalType": "uint256",
          "name": "allowance",
          "type": "uint256"
        },
        {
          "internalType": "uint256",
          "name": "needed",
          "type": "uint256"
        }
      ],
      "name": "ERC20InsufficientAllowance",
      "type": "error"
    },
    {
      "inputs": [
        {
          "internalType": "address",
          "name": "sender",
          "type": "address"
        },
        {
          "internalType": "uint256",
          "name": "balance",
          "type": "uint256"
        },
        {
          "internalType": "uint256",
          "name": "needed",
          "type": "uint256"
        }
      ],
      "name": "ERC20InsufficientBalance",
      "type": "error"
    },
    {
      "inputs": [
        {
          "internalType": "address",
          "name": "approver",
          "type": "address"
        }
      ],
      "name": "ERC20InvalidApprover",
      "type": "error"
    },
    {
      "inputs": [
        {
          "internalType": "address",
          "name": "receiver",
          "type": "address"
        }
      ],
      "name": "ERC20InvalidReceiver",
      "type": "error"
    },
    {
      "inputs": [
        {
          "internalType": "address",
          "name": "sender",
          "type": "address"
        }
      ],
      "name": "ERC20InvalidSender",
      "type": "error"
    },
    {
      "inputs": [
        {
          "internalType": "address",
          "name": "spender",
          "type": "address"
        }
      ],
      "name": "ERC20InvalidSpender",
      "type": "error"
    },
    {
      "inputs": [],
      "name": "ExceedsThreshold",
      "type": "error"
    },
    {
      "inputs": [],
      "name": "InsufficientETHSent",
      "type": "error"
    },
    {
      "inputs": [],
      "name": "LiquidityProvisionLocked",
      "type": "error"
    },
    {
      "inputs": [],
      "name": "NotEnoughMinted",
      "type": "error"
    },
    {
      "inputs": [
        {
          "internalType": "address",
          "name": "owner",
          "type": "address"
        }
      ],
      "name": "OwnableInvalidOwner",
      "type": "error"
    },
    {
      "inputs": [
        {
          "internalType": "address",
          "name": "account",
          "type": "address"
        }
      ],
      "name": "OwnableUnauthorizedAccount",
      "type": "error"
    },
    {
      "inputs": [],
      "name": "UnauthorizedAccess",
      "type": "error"
    },
    {
      "anonymous": false,
      "inputs": [
        {
          "indexed": true,
          "internalType": "address",
          "name": "owner",
          "type": "address"
        },
        {
          "indexed": true,
          "internalType": "address",
          "name": "spender",
          "type": "address"
        },
        {
          "indexed": false,
          "internalType": "uint256",
          "name": "value",
          "type": "uint256"
        }
      ],
      "name": "Approval",
      "type": "event"
    },
    {
      "anonymous": false,
      "inputs": [
        {
          "indexed": false,
          "internalType": "uint256",
          "name": "ethAmount",
          "type": "uint256"
        },
        {
          "indexed": false,
          "internalType": "uint256",
          "name": "tokenAmount",
          "type": "uint256"
        },
        {
          "indexed": false,
          "internalType": "address",
          "name": "_pool",
          "type": "address"
        }
      ],
      "name": "LiquidityAdded",
      "type": "event"
    },
    {
      "anonymous": false,
      "inputs": [
        {
          "indexed": true,
          "internalType": "address",
          "name": "previousOwner",
          "type": "address"
        },
        {
          "indexed": true,
          "internalType": "address",
          "name": "newOwner",
          "type": "address"
        }
      ],
      "name": "OwnershipTransferred",
      "type": "event"
    },
    {
      "anonymous": false,
      "inputs": [
        {
          "indexed": true,
          "internalType": "address",
          "name": "from",
          "type": "address"
        },
        {
          "indexed": false,
          "internalType": "uint256",
          "name": "amount",
          "type": "uint256"
        }
      ],
      "name": "TokenBurned",
      "type": "event"
    },
    {
      "anonymous": false,
      "inputs": [
        {
          "indexed": true,
          "internalType": "address",
          "name": "to",
          "type": "address"
        },
        {
          "indexed": false,
          "internalType": "uint256",
          "name": "amount",
          "type": "uint256"
        }
      ],
      "name": "TokenMinted",
      "type": "event"
    },
    {
      "anonymous": false,
      "inputs": [
        {
          "indexed": true,
          "internalType": "address",
          "name": "from",
          "type": "address"
        },
        {
          "indexed": true,
          "internalType": "address",
          "name": "to",
          "type": "address"
        },
        {
          "indexed": false,
          "internalType": "uint256",
          "name": "value",
          "type": "uint256"
        }
      ],
      "name": "Transfer",
      "type": "event"
    },
    {
      "inputs": [],
      "name": "_wrapETH",
      "outputs": [],
      "stateMutability": "payable",
      "type": "function"
    },
    {
      "inputs": [
        {
          "internalType": "address",
          "name": "owner",
          "type": "address"
        },
        {
          "internalType": "address",
          "name": "spender",
          "type": "address"
        }
      ],
      "name": "allowance",
      "outputs": [
        {
          "internalType": "uint256",
          "name": "",
          "type": "uint256"
        }
      ],
      "stateMutability": "view",
      "type": "function"
    },
    {
      "inputs": [
        {
          "internalType": "address",
          "name": "spender",
          "type": "address"
        },
        {
          "internalType": "uint256",
          "name": "value",
          "type": "uint256"
        }
      ],
      "name": "approve",
      "outputs": [
        {
          "internalType": "bool",
          "name": "",
          "type": "bool"
        }
      ],
      "stateMutability": "nonpayable",
      "type": "function"
    },
    {
      "inputs": [
        {
          "internalType": "address",
          "name": "account",
          "type": "address"
        }
      ],
      "name": "balanceOf",
      "outputs": [
        {
          "internalType": "uint256",
          "name": "",
          "type": "uint256"
        }
      ],
      "stateMutability": "view",
      "type": "function"
    },
    {
      "inputs": [
        {
          "internalType": "uint256",
          "name": "amount",
          "type": "uint256"
        }
      ],
      "name": "burn",
      "outputs": [],
      "stateMutability": "nonpayable",
      "type": "function"
    },
    {
      "inputs": [
        {
          "internalType": "uint256",
          "name": "amount",
          "type": "uint256"
        }
      ],
      "name": "calculateBurnProceeds",
      "outputs": [
        {
          "internalType": "uint256",
          "name": "",
          "type": "uint256"
        }
      ],
      "stateMutability": "view",
      "type": "function"
    },
    {
      "inputs": [
        {
          "internalType": "uint256",
          "name": "currentSupply",
          "type": "uint256"
        },
        {
          "internalType": "uint256",
          "name": "mintAmount",
          "type": "uint256"
        }
      ],
      "name": "calculateMintCost",
      "outputs": [
        {
          "internalType": "uint256",
          "name": "",
          "type": "uint256"
        }
      ],
      "stateMutability": "view",
      "type": "function"
    },
    {
      "inputs": [
        {
          "internalType": "address",
          "name": "tokenA",
          "type": "address"
        },
        {
          "internalType": "address",
          "name": "tokenB",
          "type": "address"
        },
        {
          "internalType": "uint24",
          "name": "fee",
          "type": "uint24"
        }
      ],
      "name": "createAndInitializePoolIfNecessary",
      "outputs": [],
      "stateMutability": "nonpayable",
      "type": "function"
    },
    {
      "inputs": [],
      "name": "decimals",
      "outputs": [
        {
          "internalType": "uint8",
          "name": "",
          "type": "uint8"
        }
      ],
      "stateMutability": "view",
      "type": "function"
    },
    {
      "inputs": [
        {
          "internalType": "address",
          "name": "tokenA",
          "type": "address"
        },
        {
          "internalType": "address",
          "name": "tokenB",
          "type": "address"
        },
        {
          "internalType": "uint24",
          "name": "fee",
          "type": "uint24"
        }
      ],
      "name": "getPoolAddress",
      "outputs": [
        {
          "internalType": "address",
          "name": "",
          "type": "address"
        }
      ],
      "stateMutability": "view",
      "type": "function"
    },
    {
      "inputs": [],
      "name": "isLiquidityProvisionLocked",
      "outputs": [
        {
          "internalType": "bool",
          "name": "",
          "type": "bool"
        }
      ],
      "stateMutability": "view",
      "type": "function"
    },
    {
      "inputs": [],
      "name": "liquidityProvisionThreshold",
      "outputs": [
        {
          "internalType": "uint256",
          "name": "",
          "type": "uint256"
        }
      ],
      "stateMutability": "view",
      "type": "function"
    },
    {
      "inputs": [
        {
          "internalType": "uint256",
          "name": "amount",
          "type": "uint256"
        }
      ],
      "name": "mint",
      "outputs": [],
      "stateMutability": "payable",
      "type": "function"
    },
    {
      "inputs": [
        {
          "internalType": "uint256",
          "name": "amount0ToAdd",
          "type": "uint256"
        },
        {
          "internalType": "uint256",
          "name": "amount1ToAdd",
          "type": "uint256"
        },
        {
          "internalType": "address",
          "name": "_token",
          "type": "address"
        }
      ],
      "name": "mintNewPosition",
      "outputs": [
        {
          "internalType": "uint256",
          "name": "tokenId",
          "type": "uint256"
        },
        {
          "internalType": "uint128",
          "name": "liquidity",
          "type": "uint128"
        },
        {
          "internalType": "uint256",
          "name": "amount0",
          "type": "uint256"
        },
        {
          "internalType": "uint256",
          "name": "amount1",
          "type": "uint256"
        }
      ],
      "stateMutability": "payable",
      "type": "function"
    },
    {
      "inputs": [],
      "name": "name",
      "outputs": [
        {
          "internalType": "string",
          "name": "",
          "type": "string"
        }
      ],
      "stateMutability": "view",
      "type": "function"
    },
    {
      "inputs": [
        {
          "internalType": "address",
          "name": "",
          "type": "address"
        },
        {
          "internalType": "address",
          "name": "",
          "type": "address"
        },
        {
          "internalType": "uint256",
          "name": "",
          "type": "uint256"
        },
        {
          "internalType": "bytes",
          "name": "",
          "type": "bytes"
        }
      ],
      "name": "onERC721Received",
      "outputs": [
        {
          "internalType": "bytes4",
          "name": "",
          "type": "bytes4"
        }
      ],
      "stateMutability": "pure",
      "type": "function"
    },
    {
      "inputs": [],
      "name": "owner",
      "outputs": [
        {
          "internalType": "address",
          "name": "",
          "type": "address"
        }
      ],
      "stateMutability": "view",
      "type": "function"
    },
    {
      "inputs": [],
      "name": "positionManager",
      "outputs": [
        {
          "internalType": "contract INonfungiblePositionManager",
          "name": "",
          "type": "address"
        }
      ],
      "stateMutability": "view",
      "type": "function"
    },
    {
      "inputs": [],
      "name": "renounceOwnership",
      "outputs": [],
      "stateMutability": "nonpayable",
      "type": "function"
    },
    {
      "inputs": [],
      "name": "symbol",
      "outputs": [
        {
          "internalType": "string",
          "name": "",
          "type": "string"
        }
      ],
      "stateMutability": "view",
      "type": "function"
    },
    {
      "inputs": [],
      "name": "totalSupply",
      "outputs": [
        {
          "internalType": "uint256",
          "name": "",
          "type": "uint256"
        }
      ],
      "stateMutability": "view",
      "type": "function"
    },
    {
      "inputs": [
        {
          "internalType": "address",
          "name": "to",
          "type": "address"
        },
        {
          "internalType": "uint256",
          "name": "value",
          "type": "uint256"
        }
      ],
      "name": "transfer",
      "outputs": [
        {
          "internalType": "bool",
          "name": "",
          "type": "bool"
        }
      ],
      "stateMutability": "nonpayable",
      "type": "function"
    },
    {
      "inputs": [
        {
          "internalType": "address",
          "name": "from",
          "type": "address"
        },
        {
          "internalType": "address",
          "name": "to",
          "type": "address"
        },
        {
          "internalType": "uint256",
          "name": "value",
          "type": "uint256"
        }
      ],
      "name": "transferFrom",
      "outputs": [
        {
          "internalType": "bool",
          "name": "",
          "type": "bool"
        }
      ],
      "stateMutability": "nonpayable",
      "type": "function"
    },
    {
      "inputs": [
        {
          "internalType": "address",
          "name": "newOwner",
          "type": "address"
        }
      ],
      "name": "transferOwnership",
      "outputs": [],
      "stateMutability": "nonpayable",
      "type": "function"
    },
    {
      "inputs": [],
      "name": "treasuryWallet",
      "outputs": [
        {
          "internalType": "address",
          "name": "",
          "type": "address"
        }
      ],
      "stateMutability": "view",
      "type": "function"
    },
    {
      "inputs": [],
      "name": "uniswapV3Factory",
      "outputs": [
        {
          "internalType": "contract IUniswapV3Factory",
          "name": "",
          "type": "address"
        }
      ],
      "stateMutability": "view",
      "type": "function"
    },
    {
      "inputs": [],
      "name": "weth",
      "outputs": [
        {
          "internalType": "contract IWETH",
          "name": "",
          "type": "address"
        }
      ],
      "stateMutability": "view",
      "type": "function"
    }
  ],
  "transactionHash": "0x288e1173e077cd166a6853d3cc580c5c3425f34cf163af3f9c041ee32d79a2e0",
  "args": [
    "FARTBEANS2",
    "BEANS2",
    "0x4200000000000000000000000000000000000006",
    "0x4752ba5DBc23f44D87826276BF6Fd6b1C372aD24",
    "0x27F971cb582BF9E50F397e4d29a5C7A34f11faA2",
    "0x820AE05036E269BecbD3B01aA7e30bBc9f75026D"
  ],
  "numDeployments": 51,
  "solcInputHash": "8a4c19c832f9b75171c5b9b33e422a84",
  "bytecode": "0x6080604052678ac7230489e800006006556007805460ff191690553480156200002757600080fd5b506040516200220c3803806200220c8339810160408190526200004a916200069d565b33868660036200005b8382620007ec565b5060046200006a8282620007ec565b5050506001600160a01b0381166200009d57604051631e4fbdf760e01b8152600060048201526024015b60405180910390fd5b620000a881620001cf565b50600780546001600160a01b0380861661010002610100600160a81b031990921691909117909155600880548483166001600160a01b03199182161790915560098054928716929091168217905562000105903061271062000221565b600754600954604051630b4c774160e11b81526001600160a01b0391821660048201523060248201526127106044820152600092610100900490911690631698ee8290606401602060405180830381865afa15801562000169573d6000803e3d6000fd5b505050506040513d601f19601f820116820180604052508101906200018f9190620008b8565b600a80546001600160a01b0319166001600160a01b0385161790559050620001c261dead670de0b6b3a76400006200044e565b5050505050505062000907565b600580546001600160a01b038381166001600160a01b0319831681179093556040519116919082907f8be0079c531659141344cd1fd0a4f28419497f9722a3daafe3b4186f6b6457e090600090a35050565b600754604051630b4c774160e11b81526001600160a01b038581166004830152848116602483015262ffffff841660448301526c010000000000000000000000009260009261010090910490911690631698ee8290606401602060405180830381865afa15801562000297573d6000803e3d6000fd5b505050506040513d601f19601f82011682018060405250810190620002bd9190620008b8565b90506001600160a01b038116620004475760075460405163a167129560e01b81526001600160a01b038781166004830152868116602483015262ffffff861660448301526101009092049091169063a1671295906064016020604051808303816000875af115801562000334573d6000803e3d6000fd5b505050506040513d601f19601f820116820180604052508101906200035a9190620008b8565b50600754604051630b4c774160e11b81526001600160a01b038781166004830152868116602483015262ffffff8616604483015261010090920490911690631698ee8290606401602060405180830381865afa158015620003bf573d6000803e3d6000fd5b505050506040513d601f19601f82011682018060405250810190620003e59190620008b8565b60405163f637731d60e01b81526001600160a01b0384811660048301529192509082169063f637731d90602401600060405180830381600087803b1580156200042d57600080fd5b505af115801562000442573d6000803e3d6000fd5b505050505b5050505050565b6001600160a01b0382166200047a5760405163ec442f0560e01b81526000600482015260240162000094565b62000488600083836200048c565b5050565b6001600160a01b038316620004bb578060026000828254620004af9190620008df565b909155506200052f9050565b6001600160a01b03831660009081526020819052604090205481811015620005105760405163391434e360e21b81526001600160a01b0385166004820152602481018290526044810183905260640162000094565b6001600160a01b03841660009081526020819052604090209082900390555b6001600160a01b0382166200054d576002805482900390556200056c565b6001600160a01b03821660009081526020819052604090208054820190555b816001600160a01b0316836001600160a01b03167fddf252ad1be2c89b69c2b068fc378daa952ba7f163c4a11628f55a4df523b3ef83604051620005b291815260200190565b60405180910390a3505050565b634e487b7160e01b600052604160045260246000fd5b600082601f830112620005e757600080fd5b81516001600160401b0380821115620006045762000604620005bf565b604051601f8301601f19908116603f011681019082821181831017156200062f576200062f620005bf565b816040528381526020925086838588010111156200064c57600080fd5b600091505b8382101562000670578582018301518183018401529082019062000651565b600093810190920192909252949350505050565b6001600160a01b03811681146200069a57600080fd5b50565b60008060008060008060c08789031215620006b757600080fd5b86516001600160401b0380821115620006cf57600080fd5b620006dd8a838b01620005d5565b97506020890151915080821115620006f457600080fd5b506200070389828a01620005d5565b9550506040870151620007168162000684565b6060880151909450620007298162000684565b60808801519093506200073c8162000684565b60a08801519092506200074f8162000684565b809150509295509295509295565b600181811c908216806200077257607f821691505b6020821081036200079357634e487b7160e01b600052602260045260246000fd5b50919050565b601f821115620007e757600081815260208120601f850160051c81016020861015620007c25750805b601f850160051c820191505b81811015620007e357828155600101620007ce565b5050505b505050565b81516001600160401b03811115620008085762000808620005bf565b62000820816200081984546200075d565b8462000799565b602080601f8311600181146200085857600084156200083f5750858301515b600019600386901b1c1916600185901b178555620007e3565b600085815260208120601f198616915b82811015620008895788860151825594840194600190910190840162000868565b5085821015620008a85787850151600019600388901b60f8161c191681555b5050505050600190811b01905550565b600060208284031215620008cb57600080fd5b8151620008d88162000684565b9392505050565b808201808211156200090157634e487b7160e01b600052601160045260246000fd5b92915050565b6118f580620009176000396000f3fe60806040526004361061019c5760003560e01c80636d2e7c69116100ec57806395d89b411161008a578063a9059cbb11610064578063a9059cbb146104a4578063dd62ed3e146104c4578063f2fde38b1461050a578063fc90dfe21461052a57600080fd5b806395d89b411461045c578063a0712d6814610471578063a145288f1461048457600080fd5b8063791b98bc116100c6578063791b98bc146103e45780637b3a5681146104045780638160b38d1461041e5780638da5cb5b1461043e57600080fd5b80636d2e7c691461039157806370a0823114610399578063715018a6146103cf57600080fd5b806333527eac1161015957806342966c681161013357806342966c681461030c5780634626402b1461032c5780635b5491821461034c578063696d62831461037157600080fd5b806333527eac1461029c57806335f167d0146102b25780633fc8cef3146102d457600080fd5b806306fdde03146101a1578063095ea7b3146101cc578063150b7a02146101fc57806318160ddd1461024157806323b872dd14610260578063313ce56714610280575b600080fd5b3480156101ad57600080fd5b506101b6610565565b6040516101c3919061138f565b60405180910390f35b3480156101d857600080fd5b506101ec6101e73660046113f2565b6105f7565b60405190151581526020016101c3565b34801561020857600080fd5b5061022861021736600461141e565b630a85bd0160e11b95945050505050565b6040516001600160e01b031990911681526020016101c3565b34801561024d57600080fd5b506002545b6040519081526020016101c3565b34801561026c57600080fd5b506101ec61027b3660046114bd565b610611565b34801561028c57600080fd5b50604051601281526020016101c3565b3480156102a857600080fd5b5061025260065481565b3480156102be57600080fd5b506102d26102cd3660046114fe565b610635565b005b3480156102e057600080fd5b506009546102f4906001600160a01b031681565b6040516001600160a01b0390911681526020016101c3565b34801561031857600080fd5b506102d2610327366004611551565b610823565b34801561033857600080fd5b50600a546102f4906001600160a01b031681565b34801561035857600080fd5b506007546102f49061010090046001600160a01b031681565b34801561037d57600080fd5b506102f461038c3660046114fe565b6108e6565b6102d2610969565b3480156103a557600080fd5b506102526103b436600461156a565b6001600160a01b031660009081526020819052604090205490565b3480156103db57600080fd5b506102d2610acd565b3480156103f057600080fd5b506008546102f4906001600160a01b031681565b34801561041057600080fd5b506007546101ec9060ff1681565b34801561042a57600080fd5b50610252610439366004611587565b610ae1565b34801561044a57600080fd5b506005546001600160a01b03166102f4565b34801561046857600080fd5b506101b6610b24565b6102d261047f366004611551565b610b33565b34801561049057600080fd5b5061025261049f366004611551565b610c71565b3480156104b057600080fd5b506101ec6104bf3660046113f2565b610cc6565b3480156104d057600080fd5b506102526104df3660046115a9565b6001600160a01b03918216600090815260016020908152604080832093909416825291909152205490565b34801561051657600080fd5b506102d261052536600461156a565b610cd4565b61053d6105383660046115e2565b610d17565b604080519485526001600160801b0390931660208501529183015260608201526080016101c3565b60606003805461057490611610565b80601f01602080910402602001604051908101604052809291908181526020018280546105a090611610565b80156105ed5780601f106105c2576101008083540402835291602001916105ed565b820191906000526020600020905b8154815290600101906020018083116105d057829003601f168201915b5050505050905090565b600033610605818585610f3f565b60019150505b92915050565b60003361061f858285610f51565b61062a858585610fc9565b506001949350505050565b600754604051630b4c774160e11b8152600160601b916000916101009091046001600160a01b031690631698ee82906106769088908890889060040161164a565b602060405180830381865afa158015610693573d6000803e3d6000fd5b505050506040513d601f19601f820116820180604052508101906106b79190611672565b90506001600160a01b03811661081c5760075460405163a167129560e01b81526101009091046001600160a01b03169063a1671295906106ff9088908890889060040161164a565b6020604051808303816000875af115801561071e573d6000803e3d6000fd5b505050506040513d601f19601f820116820180604052508101906107429190611672565b50600754604051630b4c774160e11b81526101009091046001600160a01b031690631698ee829061077b9088908890889060040161164a565b602060405180830381865afa158015610798573d6000803e3d6000fd5b505050506040513d601f19601f820116820180604052508101906107bc9190611672565b60405163f637731d60e01b81526001600160a01b0384811660048301529192509082169063f637731d90602401600060405180830381600087803b15801561080357600080fd5b505af1158015610817573d6000803e3d6000fd5b505050505b5050505050565b60075460ff161561084757604051633a0d72d160e21b815260040160405180910390fd5b600061085282610c71565b9050478111156108755760405163311c9fd160e01b815260040160405180910390fd5b61087f3383611028565b604051339082156108fc029083906000818181858888f193505050501580156108ac573d6000803e3d6000fd5b5060405182815233907f1af5163f80e79b5e554f61e1d052084d3a3fe1166e42a265798c4e2ddce8ffa29060200160405180910390a25050565b600754604051630b4c774160e11b815260009161010090046001600160a01b031690631698ee82906109209087908790879060040161164a565b602060405180830381865afa15801561093d573d6000803e3d6000fd5b505050506040513d601f19601f820116820180604052508101906109619190611672565b949350505050565b60075460ff1661098c57604051633a0d72d160e21b815260040160405180910390fd5b6009546001600160a01b0316600060646109a74760056116a5565b6109b191906116d2565b600a546040519192506001600160a01b03169082156108fc029083906000818181858888f193505050501580156109ec573d6000803e3d6000fd5b50600060646109fc4760016116a5565b610a0691906116d2565b9050610a1a6005546001600160a01b031690565b6001600160a01b03166108fc829081150290604051600060405180830381858888f19350505050158015610a52573d6000803e3d6000fd5b506000836001600160a01b03164760405160006040518083038185875af1925050503d8060008114610aa0576040519150601f19603f3d011682016040523d82523d6000602084013e610aa5565b606091505b5050905080610ac75760405163311c9fd160e01b815260040160405180910390fd5b50505050565b610ad5611062565b610adf600061108f565b565b600082600003610b0457610afd610af883856116e6565b6110e1565b905061060b565b610b0d836110e1565b610b1a610af884866116e6565b610afd91906116f9565b60606004805461057490611610565b60075460ff1615610b5757604051633a0d72d160e21b815260040160405180910390fd5b6001811015610b79576040516393c93e0160e01b815260040160405180910390fd5b6000610b8d610b8760025490565b83610ae1565b9050803411610baf5760405163311c9fd160e01b815260040160405180910390fd5b60006064610bbe84600f6116a5565b610bc891906116d2565b9050610bd4308261115a565b6000610be082856116f9565b9050610bec338261115a565b82341115610c2c57336108fc610c0285346116f9565b6040518115909202916000818181858888f19350505050158015610c2a573d6000803e3d6000fd5b505b6007805460ff1916905560405184815233907fb9144c96c86541f6fa89c9f2f02495cccf4b08cd6643e26d34ee00aa586558a89060200160405180910390a250505050565b600080610c7d60025490565b9050808310610c9f5760405163083c136160e11b815260040160405180910390fd5b610cac610af884836116f9565b610cb5826110e1565b610cbf91906116f9565b9392505050565b600033610605818585610fc9565b610cdc611062565b6001600160a01b038116610d0b57604051631e4fbdf760e01b8152600060048201526024015b60405180910390fd5b610d148161108f565b50565b60085460405163095ea7b360e01b81526001600160a01b03909116600482015260248101849052600090819081908190309063095ea7b3906044016020604051808303816000875af1158015610d71573d6000803e3d6000fd5b505050506040513d601f19601f82011682018060405250810190610d959190611756565b5060095460085460405163095ea7b360e01b81526001600160a01b0391821660048201526024810189905291169063095ea7b3906044016020604051808303816000875af1158015610deb573d6000803e3d6000fd5b505050506040513d601f19601f82011682018060405250810190610e0f9190611756565b5060408051610160810182526009546001600160a01b03168152306020820152612710918101919091526000906060810160c8610e5081620d89e719611778565b610e5a91906117b2565b60020b815260200160c880610e72620d89e7196117d9565b610e7c9190611778565b610e8691906117b2565b60020b8152602081018a905260408082018a9052600060608301819052608083015261dead60a08301524260c0909201919091526008549051634418b22b60e11b81529192506001600160a01b031690638831645690610eea9084906004016117fb565b6080604051808303816000875af1158015610f09573d6000803e3d6000fd5b505050506040513d601f19601f82011682018060405250810190610f2d919061170c565b929b919a509850909650945050505050565b610f4c8383836001611190565b505050565b6001600160a01b038381166000908152600160209081526040808320938616835292905220546000198114610ac75781811015610fba57604051637dc7a0d960e11b81526001600160a01b03841660048201526024810182905260448101839052606401610d02565b610ac784848484036000611190565b6001600160a01b038316610ff357604051634b637e8f60e11b815260006004820152602401610d02565b6001600160a01b03821661101d5760405163ec442f0560e01b815260006004820152602401610d02565b610f4c838383611265565b6001600160a01b03821661105257604051634b637e8f60e11b815260006004820152602401610d02565b61105e82600083611265565b5050565b6005546001600160a01b03163314610adf5760405163118cdaa760e01b8152336004820152602401610d02565b600580546001600160a01b038381166001600160a01b0319831681179093556040519116919082907f8be0079c531659141344cd1fd0a4f28419497f9722a3daafe3b4186f6b6457e090600090a35050565b600060066110f7670de0b6b3a7640000846116d2565b6111029060026116a5565b61110d9060016116e6565b61111f670de0b6b3a7640000856116d2565b61112a9060016116e6565b61113c670de0b6b3a7640000866116d2565b61114691906116a5565b61115091906116a5565b61060b91906116d2565b6001600160a01b0382166111845760405163ec442f0560e01b815260006004820152602401610d02565b61105e60008383611265565b6001600160a01b0384166111ba5760405163e602df0560e01b815260006004820152602401610d02565b6001600160a01b0383166111e457604051634a1406b160e11b815260006004820152602401610d02565b6001600160a01b0380851660009081526001602090815260408083209387168352929052208290558015610ac757826001600160a01b0316846001600160a01b03167f8c5be1e5ebec7d5bd14f71427d1e84f3dd0314c0f7b2291e5b200ac8c7c3b9258460405161125791815260200190565b60405180910390a350505050565b6001600160a01b03831661129057806002600082825461128591906116e6565b909155506113029050565b6001600160a01b038316600090815260208190526040902054818110156112e35760405163391434e360e21b81526001600160a01b03851660048201526024810182905260448101839052606401610d02565b6001600160a01b03841660009081526020819052604090209082900390555b6001600160a01b03821661131e5760028054829003905561133d565b6001600160a01b03821660009081526020819052604090208054820190555b816001600160a01b0316836001600160a01b03167fddf252ad1be2c89b69c2b068fc378daa952ba7f163c4a11628f55a4df523b3ef8360405161138291815260200190565b60405180910390a3505050565b600060208083528351808285015260005b818110156113bc578581018301518582016040015282016113a0565b506000604082860101526040601f19601f8301168501019250505092915050565b6001600160a01b0381168114610d1457600080fd5b6000806040838503121561140557600080fd5b8235611410816113dd565b946020939093013593505050565b60008060008060006080868803121561143657600080fd5b8535611441816113dd565b94506020860135611451816113dd565b935060408601359250606086013567ffffffffffffffff8082111561147557600080fd5b818801915088601f83011261148957600080fd5b81358181111561149857600080fd5b8960208285010111156114aa57600080fd5b9699959850939650602001949392505050565b6000806000606084860312156114d257600080fd5b83356114dd816113dd565b925060208401356114ed816113dd565b929592945050506040919091013590565b60008060006060848603121561151357600080fd5b833561151e816113dd565b9250602084013561152e816113dd565b9150604084013562ffffff8116811461154657600080fd5b809150509250925092565b60006020828403121561156357600080fd5b5035919050565b60006020828403121561157c57600080fd5b8135610cbf816113dd565b6000806040838503121561159a57600080fd5b50508035926020909101359150565b600080604083850312156115bc57600080fd5b82356115c7816113dd565b915060208301356115d7816113dd565b809150509250929050565b6000806000606084860312156115f757600080fd5b83359250602084013591506040840135611546816113dd565b600181811c9082168061162457607f821691505b60208210810361164457634e487b7160e01b600052602260045260246000fd5b50919050565b6001600160a01b03938416815291909216602082015262ffffff909116604082015260600190565b60006020828403121561168457600080fd5b8151610cbf816113dd565b634e487b7160e01b600052601160045260246000fd5b808202811582820484141761060b5761060b61168f565b634e487b7160e01b600052601260045260246000fd5b6000826116e1576116e16116bc565b500490565b8082018082111561060b5761060b61168f565b8181038181111561060b5761060b61168f565b6000806000806080858703121561172257600080fd5b8451935060208501516001600160801b038116811461174057600080fd5b6040860151606090960151949790965092505050565b60006020828403121561176857600080fd5b81518015158114610cbf57600080fd5b60008160020b8360020b8061178f5761178f6116bc565b627fffff198214600019821416156117a9576117a961168f565b90059392505050565b60008260020b8260020b028060020b91508082146117d2576117d261168f565b5092915050565b60008160020b627fffff1981036117f2576117f261168f565b60000392915050565b81516001600160a01b031681526101608101602083015161182760208401826001600160a01b03169052565b50604083015161183e604084018262ffffff169052565b506060830151611853606084018260020b9052565b506080830151611868608084018260020b9052565b5060a083015160a083015260c083015160c083015260e083015160e0830152610100808401518184015250610120808401516118ae828501826001600160a01b03169052565b50506101409283015191909201529056fea2646970667358221220b92c5e01048e4f4372a0012b722f2c971a3b76694748167840977ca7a9517deb64736f6c63430008140033",
  "devdoc": {
    "errors": {
      "ERC20InsufficientAllowance(address,uint256,uint256)": [
        {
          "details": "Indicates a failure with the `spender`s `allowance`. Used in transfers.",
          "params": {
            "allowance": "Amount of tokens a `spender` is allowed to operate with.",
            "needed": "Minimum amount required to perform a transfer.",
            "spender": "Address that may be allowed to operate on tokens without being their owner."
          }
        }
      ],
      "ERC20InsufficientBalance(address,uint256,uint256)": [
        {
          "details": "Indicates an error related to the current `balance` of a `sender`. Used in transfers.",
          "params": {
            "balance": "Current balance for the interacting account.",
            "needed": "Minimum amount required to perform a transfer.",
            "sender": "Address whose tokens are being transferred."
          }
        }
      ],
      "ERC20InvalidApprover(address)": [
        {
          "details": "Indicates a failure with the `approver` of a token to be approved. Used in approvals.",
          "params": {
            "approver": "Address initiating an approval operation."
          }
        }
      ],
      "ERC20InvalidReceiver(address)": [
        {
          "details": "Indicates a failure with the token `receiver`. Used in transfers.",
          "params": {
            "receiver": "Address to which tokens are being transferred."
          }
        }
      ],
      "ERC20InvalidSender(address)": [
        {
          "details": "Indicates a failure with the token `sender`. Used in transfers.",
          "params": {
            "sender": "Address whose tokens are being transferred."
          }
        }
      ],
      "ERC20InvalidSpender(address)": [
        {
          "details": "Indicates a failure with the `spender` to be approved. Used in approvals.",
          "params": {
            "spender": "Address that may be allowed to operate on tokens without being their owner."
          }
        }
      ],
      "OwnableInvalidOwner(address)": [
        {
          "details": "The owner is not a valid owner account. (eg. `address(0)`)"
        }
      ],
      "OwnableUnauthorizedAccount(address)": [
        {
          "details": "The caller account is not authorized to perform an operation."
        }
      ]
    },
    "events": {
      "Approval(address,address,uint256)": {
        "details": "Emitted when the allowance of a `spender` for an `owner` is set by a call to {approve}. `value` is the new allowance."
      },
      "Transfer(address,address,uint256)": {
        "details": "Emitted when `value` tokens are moved from one account (`from`) to another (`to`). Note that `value` may be zero."
      }
    },
    "kind": "dev",
    "methods": {
      "allowance(address,address)": {
        "details": "See {IERC20-allowance}."
      },
      "approve(address,uint256)": {
        "details": "See {IERC20-approve}. NOTE: If `value` is the maximum `uint256`, the allowance is not updated on `transferFrom`. This is semantically equivalent to an infinite approval. Requirements: - `spender` cannot be the zero address."
      },
      "balanceOf(address)": {
        "details": "See {IERC20-balanceOf}."
      },
      "decimals()": {
        "details": "Returns the number of decimals used to get its user representation. For example, if `decimals` equals `2`, a balance of `505` tokens should be displayed to a user as `5.05` (`505 / 10 ** 2`). Tokens usually opt for a value of 18, imitating the relationship between Ether and Wei. This is the default value returned by this function, unless it's overridden. NOTE: This information is only used for _display_ purposes: it in no way affects any of the arithmetic of the contract, including {IERC20-balanceOf} and {IERC20-transfer}."
      },
      "name()": {
        "details": "Returns the name of the token."
      },
      "owner()": {
        "details": "Returns the address of the current owner."
      },
      "renounceOwnership()": {
        "details": "Leaves the contract without owner. It will not be possible to call `onlyOwner` functions. Can only be called by the current owner. NOTE: Renouncing ownership will leave the contract without an owner, thereby disabling any functionality that is only available to the owner."
      },
      "symbol()": {
        "details": "Returns the symbol of the token, usually a shorter version of the name."
      },
      "totalSupply()": {
        "details": "See {IERC20-totalSupply}."
      },
      "transfer(address,uint256)": {
        "details": "See {IERC20-transfer}. Requirements: - `to` cannot be the zero address. - the caller must have a balance of at least `value`."
      },
      "transferFrom(address,address,uint256)": {
        "details": "See {IERC20-transferFrom}. Emits an {Approval} event indicating the updated allowance. This is not required by the EIP. See the note at the beginning of {ERC20}. NOTE: Does not update the allowance if the current allowance is the maximum `uint256`. Requirements: - `from` and `to` cannot be the zero address. - `from` must have a balance of at least `value`. - the caller must have allowance for ``from``'s tokens of at least `value`."
      },
      "transferOwnership(address)": {
        "details": "Transfers ownership of the contract to a new account (`newOwner`). Can only be called by the current owner."
      }
    },
    "version": 1
  },
  "userdoc": {
    "kind": "user",
    "methods": {},
    "version": 1
  },
  "storageLayout": {
    "storage": [
      {
        "astId": 307,
        "contract": "contracts/token.sol:Token",
        "label": "_balances",
        "offset": 0,
        "slot": "0",
        "type": "t_mapping(t_address,t_uint256)"
      },
      {
        "astId": 313,
        "contract": "contracts/token.sol:Token",
        "label": "_allowances",
        "offset": 0,
        "slot": "1",
        "type": "t_mapping(t_address,t_mapping(t_address,t_uint256))"
      },
      {
        "astId": 315,
        "contract": "contracts/token.sol:Token",
        "label": "_totalSupply",
        "offset": 0,
        "slot": "2",
        "type": "t_uint256"
      },
      {
        "astId": 317,
        "contract": "contracts/token.sol:Token",
        "label": "_name",
        "offset": 0,
        "slot": "3",
        "type": "t_string_storage"
      },
      {
        "astId": 319,
        "contract": "contracts/token.sol:Token",
        "label": "_symbol",
        "offset": 0,
        "slot": "4",
        "type": "t_string_storage"
      },
      {
        "astId": 8,
        "contract": "contracts/token.sol:Token",
        "label": "_owner",
        "offset": 0,
        "slot": "5",
        "type": "t_address"
      },
      {
        "astId": 2120,
        "contract": "contracts/token.sol:Token",
        "label": "liquidityProvisionThreshold",
        "offset": 0,
        "slot": "6",
        "type": "t_uint256"
      },
      {
        "astId": 2123,
        "contract": "contracts/token.sol:Token",
        "label": "isLiquidityProvisionLocked",
        "offset": 0,
        "slot": "7",
        "type": "t_bool"
      },
      {
        "astId": 2126,
        "contract": "contracts/token.sol:Token",
        "label": "uniswapV3Factory",
        "offset": 1,
        "slot": "7",
        "type": "t_contract(IUniswapV3Factory)2900"
      },
      {
        "astId": 2129,
        "contract": "contracts/token.sol:Token",
        "label": "positionManager",
        "offset": 0,
        "slot": "8",
        "type": "t_contract(INonfungiblePositionManager)2093"
      },
      {
        "astId": 2146,
        "contract": "contracts/token.sol:Token",
        "label": "weth",
        "offset": 0,
        "slot": "9",
        "type": "t_contract(IWETH)2055"
      },
      {
        "astId": 2148,
        "contract": "contracts/token.sol:Token",
        "label": "treasuryWallet",
        "offset": 0,
        "slot": "10",
        "type": "t_address"
      }
    ],
    "types": {
      "t_address": {
        "encoding": "inplace",
        "label": "address",
        "numberOfBytes": "20"
      },
      "t_bool": {
        "encoding": "inplace",
        "label": "bool",
        "numberOfBytes": "1"
      },
      "t_contract(INonfungiblePositionManager)2093": {
        "encoding": "inplace",
        "label": "contract INonfungiblePositionManager",
        "numberOfBytes": "20"
      },
      "t_contract(IUniswapV3Factory)2900": {
        "encoding": "inplace",
        "label": "contract IUniswapV3Factory",
        "numberOfBytes": "20"
      },
      "t_contract(IWETH)2055": {
        "encoding": "inplace",
        "label": "contract IWETH",
        "numberOfBytes": "20"
      },
      "t_mapping(t_address,t_mapping(t_address,t_uint256))": {
        "encoding": "mapping",
        "key": "t_address",
        "label": "mapping(address => mapping(address => uint256))",
        "numberOfBytes": "32",
        "value": "t_mapping(t_address,t_uint256)"
      },
      "t_mapping(t_address,t_uint256)": {
        "encoding": "mapping",
        "key": "t_address",
        "label": "mapping(address => uint256)",
        "numberOfBytes": "32",
        "value": "t_uint256"
      },
      "t_string_storage": {
        "encoding": "bytes",
        "label": "string",
        "numberOfBytes": "32"
      },
      "t_uint256": {
        "encoding": "inplace",
        "label": "uint256",
        "numberOfBytes": "32"
      }
    }
  }
}